{
	"data": {
		"bytecode": {
			"linkReferences": {},
			"object": "608060405260006001556000600355600060055534801561001f57600080fd5b50611dba8061002f6000396000f3fe608060405234801561001057600080fd5b50600436106100b45760003560e01c806386870c721161007157806386870c721461018d57806393986189146101ab578063961abd60146101c95780639f6d5759146101e5578063d030131d14610201578063f90c91d51461021d576100b4565b8063184c3b7b146100b9578063202433bf146100e9578063437cd9f8146101075780635752dbc2146101235780636e03906a1461013f57806379359c991461016f575b600080fd5b6100d360048036038101906100ce91906113ed565b61024d565b6040516100e091906119d2565b60405180910390f35b6100f16103cd565b6040516100fe919061196c565b60405180910390f35b610121600480360381019061011c91906113a4565b61060a565b005b61013d6004803603810190610138919061132e565b6106ae565b005b610159600480360381019061015491906113ed565b61071c565b604051610166919061198e565b60405180910390f35b61017761086c565b6040516101849190611928565b60405180910390f35b610195610a4f565b6040516101a2919061194a565b60405180910390f35b6101b3610b9f565b6040516101c0919061196c565b60405180910390f35b6101e360048036038101906101de919061141a565b610db2565b005b6101ff60048036038101906101fa9190611377565b610e06565b005b61021b60048036038101906102169190611476565b610e64565b005b610237600480360381019061023291906113ed565b610eed565b60405161024491906119b0565b60405180910390f35b610255610fa8565b600260008381526020019081526020016000206040518060a001604052908160008201805461028390611bbf565b80601f01602080910402602001604051908101604052809291908181526020018280546102af90611bbf565b80156102fc5780601f106102d1576101008083540402835291602001916102fc565b820191906000526020600020905b8154815290600101906020018083116102df57829003601f168201915b5050505050815260200160018201805461031590611bbf565b80601f016020809104026020016040519081016040528092919081815260200182805461034190611bbf565b801561038e5780601f106103635761010080835404028352916020019161038e565b820191906000526020600020905b81548152906001019060200180831161037157829003601f168201915b5050505050815260200160028201548152602001600382015481526020016004820160009054906101000a900460ff1615151515815250509050919050565b6060600060035467ffffffffffffffff8111156103ed576103ec611cf8565b5b60405190808252806020026020018201604052801561042657816020015b610413610fa8565b81526020019060019003908161040b5790505b50905060005b600354811015610602576002600082815260200190815260200160002060040160009054906101000a900460ff16156105ef57600260008281526020019081526020016000206040518060a001604052908160008201805461048d90611bbf565b80601f01602080910402602001604051908101604052809291908181526020018280546104b990611bbf565b80156105065780601f106104db57610100808354040283529160200191610506565b820191906000526020600020905b8154815290600101906020018083116104e957829003601f168201915b5050505050815260200160018201805461051f90611bbf565b80601f016020809104026020016040519081016040528092919081815260200182805461054b90611bbf565b80156105985780601f1061056d57610100808354040283529160200191610598565b820191906000526020600020905b81548152906001019060200180831161057b57829003601f168201915b5050505050815260200160028201548152602001600382015481526020016004820160009054906101000a900460ff1615151515815250508282815181106105e3576105e2611cc9565b5b60200260200101819052505b80806105fa90611c22565b91505061042c565b508091505090565b80600260006003548152602001908152602001600020600082015181600001908051906020019061063c929190610fd9565b506020820151816001019080519060200190610659929190610fd9565b50604082015181600201556060820151816003015560808201518160040160006101000a81548160ff0219169083151502179055509050506001600360008282546106a49190611b11565b9250508190555050565b80600080600154815260200190815260200160002060008201518160000190805190602001906106df929190610fd9565b5060208201518160010190805190602001906106fc929190610fd9565b5090505060018060008282546107129190611b11565b9250508190555050565b61072461105f565b60008083815260200190815260200160002060405180604001604052908160008201805461075190611bbf565b80601f016020809104026020016040519081016040528092919081815260200182805461077d90611bbf565b80156107ca5780601f1061079f576101008083540402835291602001916107ca565b820191906000526020600020905b8154815290600101906020018083116107ad57829003601f168201915b505050505081526020016001820180546107e390611bbf565b80601f016020809104026020016040519081016040528092919081815260200182805461080f90611bbf565b801561085c5780601f106108315761010080835404028352916020019161085c565b820191906000526020600020905b81548152906001019060200180831161083f57829003601f168201915b5050505050815250509050919050565b6060600060015467ffffffffffffffff81111561088c5761088b611cf8565b5b6040519080825280602002602001820160405280156108c557816020015b6108b261105f565b8152602001906001900390816108aa5790505b50905060005b600154811015610a475760008082815260200190815260200160002060405180604001604052908160008201805461090290611bbf565b80601f016020809104026020016040519081016040528092919081815260200182805461092e90611bbf565b801561097b5780601f106109505761010080835404028352916020019161097b565b820191906000526020600020905b81548152906001019060200180831161095e57829003601f168201915b5050505050815260200160018201805461099490611bbf565b80601f01602080910402602001604051908101604052809291908181526020018280546109c090611bbf565b8015610a0d5780601f106109e257610100808354040283529160200191610a0d565b820191906000526020600020905b8154815290600101906020018083116109f057829003601f168201915b505050505081525050828281518110610a2957610a28611cc9565b5b60200260200101819052508080610a3f90611c22565b9150506108cb565b508091505090565b6060600060055467ffffffffffffffff811115610a6f57610a6e611cf8565b5b604051908082528060200260200182016040528015610aa857816020015b610a95611079565b815260200190600190039081610a8d5790505b50905060005b600554811015610b9757600060046000600554815260200190815260200160002060405180608001604052908160008201548152602001600182015481526020016002820154815260200160038201548152505090506000610b13826000015161071c565b90506000610b24836020015161071c565b90506000610b35846040015161024d565b9050600060405180608001604052808581526020018481526020018381526020018660600151815250905080878781518110610b7457610b73611cc9565b5b602002602001018190525050505050508080610b8f90611c22565b915050610aae565b508091505090565b6060600060035467ffffffffffffffff811115610bbf57610bbe611cf8565b5b604051908082528060200260200182016040528015610bf857816020015b610be5610fa8565b815260200190600190039081610bdd5790505b50905060005b600354811015610daa57600260008281526020019081526020016000206040518060a0016040529081600082018054610c3690611bbf565b80601f0160208091040260200160405190810160405280929190818152602001828054610c6290611bbf565b8015610caf5780601f10610c8457610100808354040283529160200191610caf565b820191906000526020600020905b815481529060010190602001808311610c9257829003601f168201915b50505050508152602001600182018054610cc890611bbf565b80601f0160208091040260200160405190810160405280929190818152602001828054610cf490611bbf565b8015610d415780601f10610d1657610100808354040283529160200191610d41565b820191906000526020600020905b815481529060010190602001808311610d2457829003601f168201915b5050505050815260200160028201548152602001600382015481526020016004820160009054906101000a900460ff161515151581525050828281518110610d8c57610d8b611cc9565b5b60200260200101819052508080610da290611c22565b915050610bfe565b508091505090565b806000808481526020019081526020016000206000820151816000019080519060200190610de1929190610fd9565b506020820151816001019080519060200190610dfe929190610fd9565b509050505050565b8060046000600554815260200190815260200160002060008201518160000155602082015181600101556040820151816002015560608201518160030155905050600160056000828254610e5a9190611b11565b9250508190555050565b80600260008481526020019081526020016000206000820151816000019080519060200190610e94929190610fd9565b506020820151816001019080519060200190610eb1929190610fd9565b50604082015181600201556060820151816003015560808201518160040160006101000a81548160ff0219169083151502179055509050505050565b610ef5611079565b60006004600084815260200190815260200160002060405180608001604052908160008201548152602001600182015481526020016002820154815260200160038201548152505090506000610f4e826000015161071c565b90506000610f5f836020015161071c565b90506000610f70846040015161024d565b905060006040518060800160405280858152602001848152602001838152602001866060015181525090508095505050505050919050565b6040518060a00160405280606081526020016060815260200160008152602001600081526020016000151581525090565b828054610fe590611bbf565b90600052602060002090601f016020900481019282611007576000855561104e565b82601f1061102057805160ff191683800117855561104e565b8280016001018555821561104e579182015b8281111561104d578251825591602001919060010190611032565b5b50905061105b91906110b3565b5090565b604051806040016040528060608152602001606081525090565b604051806080016040528061108c61105f565b815260200161109961105f565b81526020016110a6610fa8565b8152602001600081525090565b5b808211156110cc5760008160009055506001016110b4565b5090565b60006110e36110de84611a19565b6119f4565b9050828152602081018484840111156110ff576110fe611d36565b5b61110a848285611b7d565b509392505050565b60008135905061112181611d56565b92915050565b600082601f83011261113c5761113b611d27565b5b813561114c8482602086016110d0565b91505092915050565b60006040828403121561116b5761116a611d2c565b5b61117560406119f4565b9050600082013567ffffffffffffffff81111561119557611194611d31565b5b6111a184828501611127565b600083015250602082013567ffffffffffffffff8111156111c5576111c4611d31565b5b6111d184828501611127565b60208301525092915050565b6000608082840312156111f3576111f2611d2c565b5b6111fd60806119f4565b9050600061120d84828501611319565b600083015250602061122184828501611319565b602083015250604061123584828501611319565b604083015250606061124984828501611319565b60608301525092915050565b600060a0828403121561126b5761126a611d2c565b5b61127560a06119f4565b9050600082013567ffffffffffffffff81111561129557611294611d31565b5b6112a184828501611127565b600083015250602082013567ffffffffffffffff8111156112c5576112c4611d31565b5b6112d184828501611127565b60208301525060406112e584828501611319565b60408301525060606112f984828501611319565b606083015250608061130d84828501611112565b60808301525092915050565b60008135905061132881611d6d565b92915050565b60006020828403121561134457611343611d40565b5b600082013567ffffffffffffffff81111561136257611361611d3b565b5b61136e84828501611155565b91505092915050565b60006080828403121561138d5761138c611d40565b5b600061139b848285016111dd565b91505092915050565b6000602082840312156113ba576113b9611d40565b5b600082013567ffffffffffffffff8111156113d8576113d7611d3b565b5b6113e484828501611255565b91505092915050565b60006020828403121561140357611402611d40565b5b600061141184828501611319565b91505092915050565b6000806040838503121561143157611430611d40565b5b600061143f85828601611319565b925050602083013567ffffffffffffffff8111156114605761145f611d3b565b5b61146c85828601611155565b9150509250929050565b6000806040838503121561148d5761148c611d40565b5b600061149b85828601611319565b925050602083013567ffffffffffffffff8111156114bc576114bb611d3b565b5b6114c885828601611255565b9150509250929050565b60006114de83836116b5565b905092915050565b60006114f2838361173d565b905092915050565b6000611506838361181f565b905092915050565b600061151982611a7a565b6115238185611acd565b93508360208202850161153585611a4a565b8060005b85811015611571578484038952815161155285826114d2565b945061155d83611aa6565b925060208a01995050600181019050611539565b50829750879550505050505092915050565b600061158e82611a85565b6115988185611ade565b9350836020820285016115aa85611a5a565b8060005b858110156115e657848403895281516115c785826114e6565b94506115d283611ab3565b925060208a019950506001810190506115ae565b50829750879550505050505092915050565b600061160382611a90565b61160d8185611aef565b93508360208202850161161f85611a6a565b8060005b8581101561165b578484038952815161163c85826114fa565b945061164783611ac0565b925060208a01995050600181019050611623565b50829750879550505050505092915050565b61167681611b67565b82525050565b600061168782611a9b565b6116918185611b00565b93506116a1818560208601611b8c565b6116aa81611d45565b840191505092915050565b600060408301600083015184820360008601526116d2828261167c565b915050602083015184820360208601526116ec828261167c565b9150508091505092915050565b60006040830160008301518482036000860152611716828261167c565b91505060208301518482036020860152611730828261167c565b9150508091505092915050565b6000608083016000830151848203600086015261175a82826116b5565b9150506020830151848203602086015261177482826116b5565b9150506040830151848203604086015261178e828261181f565b91505060608301516117a36060860182611919565b508091505092915050565b600060808301600083015184820360008601526117cb82826116b5565b915050602083015184820360208601526117e582826116b5565b915050604083015184820360408601526117ff828261181f565b91505060608301516118146060860182611919565b508091505092915050565b600060a083016000830151848203600086015261183c828261167c565b91505060208301518482036020860152611856828261167c565b915050604083015161186b6040860182611919565b50606083015161187e6060860182611919565b506080830151611891608086018261166d565b508091505092915050565b600060a08301600083015184820360008601526118b9828261167c565b915050602083015184820360208601526118d3828261167c565b91505060408301516118e86040860182611919565b5060608301516118fb6060860182611919565b50608083015161190e608086018261166d565b508091505092915050565b61192281611b73565b82525050565b60006020820190508181036000830152611942818461150e565b905092915050565b600060208201905081810360008301526119648184611583565b905092915050565b6000602082019050818103600083015261198681846115f8565b905092915050565b600060208201905081810360008301526119a881846116f9565b905092915050565b600060208201905081810360008301526119ca81846117ae565b905092915050565b600060208201905081810360008301526119ec818461189c565b905092915050565b60006119fe611a0f565b9050611a0a8282611bf1565b919050565b6000604051905090565b600067ffffffffffffffff821115611a3457611a33611cf8565b5b611a3d82611d45565b9050602081019050919050565b6000819050602082019050919050565b6000819050602082019050919050565b6000819050602082019050919050565b600081519050919050565b600081519050919050565b600081519050919050565b600081519050919050565b6000602082019050919050565b6000602082019050919050565b6000602082019050919050565b600082825260208201905092915050565b600082825260208201905092915050565b600082825260208201905092915050565b600082825260208201905092915050565b6000611b1c82611b73565b9150611b2783611b73565b9250827fffffffffffffffffffffffffffffffffffffffffffffffffffffffffffffffff03821115611b5c57611b5b611c6b565b5b828201905092915050565b60008115159050919050565b6000819050919050565b82818337600083830152505050565b60005b83811015611baa578082015181840152602081019050611b8f565b83811115611bb9576000848401525b50505050565b60006002820490506001821680611bd757607f821691505b60208210811415611beb57611bea611c9a565b5b50919050565b611bfa82611d45565b810181811067ffffffffffffffff82111715611c1957611c18611cf8565b5b80604052505050565b6000611c2d82611b73565b91507fffffffffffffffffffffffffffffffffffffffffffffffffffffffffffffffff821415611c6057611c5f611c6b565b5b600182019050919050565b7f4e487b7100000000000000000000000000000000000000000000000000000000600052601160045260246000fd5b7f4e487b7100000000000000000000000000000000000000000000000000000000600052602260045260246000fd5b7f4e487b7100000000000000000000000000000000000000000000000000000000600052603260045260246000fd5b7f4e487b7100000000000000000000000000000000000000000000000000000000600052604160045260246000fd5b600080fd5b600080fd5b600080fd5b600080fd5b600080fd5b600080fd5b6000601f19601f8301169050919050565b611d5f81611b67565b8114611d6a57600080fd5b50565b611d7681611b73565b8114611d8157600080fd5b5056fea2646970667358221220be959778a7a406b9199f1b9544b2d06fa29a8b59689ce508821bf8dd66654e2264736f6c63430008060033",
			"opcodes": "PUSH1 0x80 PUSH1 0x40 MSTORE PUSH1 0x0 PUSH1 0x1 SSTORE PUSH1 0x0 PUSH1 0x3 SSTORE PUSH1 0x0 PUSH1 0x5 SSTORE CALLVALUE DUP1 ISZERO PUSH2 0x1F JUMPI PUSH1 0x0 DUP1 REVERT JUMPDEST POP PUSH2 0x1DBA DUP1 PUSH2 0x2F PUSH1 0x0 CODECOPY PUSH1 0x0 RETURN INVALID PUSH1 0x80 PUSH1 0x40 MSTORE CALLVALUE DUP1 ISZERO PUSH2 0x10 JUMPI PUSH1 0x0 DUP1 REVERT JUMPDEST POP PUSH1 0x4 CALLDATASIZE LT PUSH2 0xB4 JUMPI PUSH1 0x0 CALLDATALOAD PUSH1 0xE0 SHR DUP1 PUSH4 0x86870C72 GT PUSH2 0x71 JUMPI DUP1 PUSH4 0x86870C72 EQ PUSH2 0x18D JUMPI DUP1 PUSH4 0x93986189 EQ PUSH2 0x1AB JUMPI DUP1 PUSH4 0x961ABD60 EQ PUSH2 0x1C9 JUMPI DUP1 PUSH4 0x9F6D5759 EQ PUSH2 0x1E5 JUMPI DUP1 PUSH4 0xD030131D EQ PUSH2 0x201 JUMPI DUP1 PUSH4 0xF90C91D5 EQ PUSH2 0x21D JUMPI PUSH2 0xB4 JUMP JUMPDEST DUP1 PUSH4 0x184C3B7B EQ PUSH2 0xB9 JUMPI DUP1 PUSH4 0x202433BF EQ PUSH2 0xE9 JUMPI DUP1 PUSH4 0x437CD9F8 EQ PUSH2 0x107 JUMPI DUP1 PUSH4 0x5752DBC2 EQ PUSH2 0x123 JUMPI DUP1 PUSH4 0x6E03906A EQ PUSH2 0x13F JUMPI DUP1 PUSH4 0x79359C99 EQ PUSH2 0x16F JUMPI JUMPDEST PUSH1 0x0 DUP1 REVERT JUMPDEST PUSH2 0xD3 PUSH1 0x4 DUP1 CALLDATASIZE SUB DUP2 ADD SWAP1 PUSH2 0xCE SWAP2 SWAP1 PUSH2 0x13ED JUMP JUMPDEST PUSH2 0x24D JUMP JUMPDEST PUSH1 0x40 MLOAD PUSH2 0xE0 SWAP2 SWAP1 PUSH2 0x19D2 JUMP JUMPDEST PUSH1 0x40 MLOAD DUP1 SWAP2 SUB SWAP1 RETURN JUMPDEST PUSH2 0xF1 PUSH2 0x3CD JUMP JUMPDEST PUSH1 0x40 MLOAD PUSH2 0xFE SWAP2 SWAP1 PUSH2 0x196C JUMP JUMPDEST PUSH1 0x40 MLOAD DUP1 SWAP2 SUB SWAP1 RETURN JUMPDEST PUSH2 0x121 PUSH1 0x4 DUP1 CALLDATASIZE SUB DUP2 ADD SWAP1 PUSH2 0x11C SWAP2 SWAP1 PUSH2 0x13A4 JUMP JUMPDEST PUSH2 0x60A JUMP JUMPDEST STOP JUMPDEST PUSH2 0x13D PUSH1 0x4 DUP1 CALLDATASIZE SUB DUP2 ADD SWAP1 PUSH2 0x138 SWAP2 SWAP1 PUSH2 0x132E JUMP JUMPDEST PUSH2 0x6AE JUMP JUMPDEST STOP JUMPDEST PUSH2 0x159 PUSH1 0x4 DUP1 CALLDATASIZE SUB DUP2 ADD SWAP1 PUSH2 0x154 SWAP2 SWAP1 PUSH2 0x13ED JUMP JUMPDEST PUSH2 0x71C JUMP JUMPDEST PUSH1 0x40 MLOAD PUSH2 0x166 SWAP2 SWAP1 PUSH2 0x198E JUMP JUMPDEST PUSH1 0x40 MLOAD DUP1 SWAP2 SUB SWAP1 RETURN JUMPDEST PUSH2 0x177 PUSH2 0x86C JUMP JUMPDEST PUSH1 0x40 MLOAD PUSH2 0x184 SWAP2 SWAP1 PUSH2 0x1928 JUMP JUMPDEST PUSH1 0x40 MLOAD DUP1 SWAP2 SUB SWAP1 RETURN JUMPDEST PUSH2 0x195 PUSH2 0xA4F JUMP JUMPDEST PUSH1 0x40 MLOAD PUSH2 0x1A2 SWAP2 SWAP1 PUSH2 0x194A JUMP JUMPDEST PUSH1 0x40 MLOAD DUP1 SWAP2 SUB SWAP1 RETURN JUMPDEST PUSH2 0x1B3 PUSH2 0xB9F JUMP JUMPDEST PUSH1 0x40 MLOAD PUSH2 0x1C0 SWAP2 SWAP1 PUSH2 0x196C JUMP JUMPDEST PUSH1 0x40 MLOAD DUP1 SWAP2 SUB SWAP1 RETURN JUMPDEST PUSH2 0x1E3 PUSH1 0x4 DUP1 CALLDATASIZE SUB DUP2 ADD SWAP1 PUSH2 0x1DE SWAP2 SWAP1 PUSH2 0x141A JUMP JUMPDEST PUSH2 0xDB2 JUMP JUMPDEST STOP JUMPDEST PUSH2 0x1FF PUSH1 0x4 DUP1 CALLDATASIZE SUB DUP2 ADD SWAP1 PUSH2 0x1FA SWAP2 SWAP1 PUSH2 0x1377 JUMP JUMPDEST PUSH2 0xE06 JUMP JUMPDEST STOP JUMPDEST PUSH2 0x21B PUSH1 0x4 DUP1 CALLDATASIZE SUB DUP2 ADD SWAP1 PUSH2 0x216 SWAP2 SWAP1 PUSH2 0x1476 JUMP JUMPDEST PUSH2 0xE64 JUMP JUMPDEST STOP JUMPDEST PUSH2 0x237 PUSH1 0x4 DUP1 CALLDATASIZE SUB DUP2 ADD SWAP1 PUSH2 0x232 SWAP2 SWAP1 PUSH2 0x13ED JUMP JUMPDEST PUSH2 0xEED JUMP JUMPDEST PUSH1 0x40 MLOAD PUSH2 0x244 SWAP2 SWAP1 PUSH2 0x19B0 JUMP JUMPDEST PUSH1 0x40 MLOAD DUP1 SWAP2 SUB SWAP1 RETURN JUMPDEST PUSH2 0x255 PUSH2 0xFA8 JUMP JUMPDEST PUSH1 0x2 PUSH1 0x0 DUP4 DUP2 MSTORE PUSH1 0x20 ADD SWAP1 DUP2 MSTORE PUSH1 0x20 ADD PUSH1 0x0 KECCAK256 PUSH1 0x40 MLOAD DUP1 PUSH1 0xA0 ADD PUSH1 0x40 MSTORE SWAP1 DUP2 PUSH1 0x0 DUP3 ADD DUP1 SLOAD PUSH2 0x283 SWAP1 PUSH2 0x1BBF JUMP JUMPDEST DUP1 PUSH1 0x1F ADD PUSH1 0x20 DUP1 SWAP2 DIV MUL PUSH1 0x20 ADD PUSH1 0x40 MLOAD SWAP1 DUP2 ADD PUSH1 0x40 MSTORE DUP1 SWAP3 SWAP2 SWAP1 DUP2 DUP2 MSTORE PUSH1 0x20 ADD DUP3 DUP1 SLOAD PUSH2 0x2AF SWAP1 PUSH2 0x1BBF JUMP JUMPDEST DUP1 ISZERO PUSH2 0x2FC JUMPI DUP1 PUSH1 0x1F LT PUSH2 0x2D1 JUMPI PUSH2 0x100 DUP1 DUP4 SLOAD DIV MUL DUP4 MSTORE SWAP2 PUSH1 0x20 ADD SWAP2 PUSH2 0x2FC JUMP JUMPDEST DUP3 ADD SWAP2 SWAP1 PUSH1 0x0 MSTORE PUSH1 0x20 PUSH1 0x0 KECCAK256 SWAP1 JUMPDEST DUP2 SLOAD DUP2 MSTORE SWAP1 PUSH1 0x1 ADD SWAP1 PUSH1 0x20 ADD DUP1 DUP4 GT PUSH2 0x2DF JUMPI DUP3 SWAP1 SUB PUSH1 0x1F AND DUP3 ADD SWAP2 JUMPDEST POP POP POP POP POP DUP2 MSTORE PUSH1 0x20 ADD PUSH1 0x1 DUP3 ADD DUP1 SLOAD PUSH2 0x315 SWAP1 PUSH2 0x1BBF JUMP JUMPDEST DUP1 PUSH1 0x1F ADD PUSH1 0x20 DUP1 SWAP2 DIV MUL PUSH1 0x20 ADD PUSH1 0x40 MLOAD SWAP1 DUP2 ADD PUSH1 0x40 MSTORE DUP1 SWAP3 SWAP2 SWAP1 DUP2 DUP2 MSTORE PUSH1 0x20 ADD DUP3 DUP1 SLOAD PUSH2 0x341 SWAP1 PUSH2 0x1BBF JUMP JUMPDEST DUP1 ISZERO PUSH2 0x38E JUMPI DUP1 PUSH1 0x1F LT PUSH2 0x363 JUMPI PUSH2 0x100 DUP1 DUP4 SLOAD DIV MUL DUP4 MSTORE SWAP2 PUSH1 0x20 ADD SWAP2 PUSH2 0x38E JUMP JUMPDEST DUP3 ADD SWAP2 SWAP1 PUSH1 0x0 MSTORE PUSH1 0x20 PUSH1 0x0 KECCAK256 SWAP1 JUMPDEST DUP2 SLOAD DUP2 MSTORE SWAP1 PUSH1 0x1 ADD SWAP1 PUSH1 0x20 ADD DUP1 DUP4 GT PUSH2 0x371 JUMPI DUP3 SWAP1 SUB PUSH1 0x1F AND DUP3 ADD SWAP2 JUMPDEST POP POP POP POP POP DUP2 MSTORE PUSH1 0x20 ADD PUSH1 0x2 DUP3 ADD SLOAD DUP2 MSTORE PUSH1 0x20 ADD PUSH1 0x3 DUP3 ADD SLOAD DUP2 MSTORE PUSH1 0x20 ADD PUSH1 0x4 DUP3 ADD PUSH1 0x0 SWAP1 SLOAD SWAP1 PUSH2 0x100 EXP SWAP1 DIV PUSH1 0xFF AND ISZERO ISZERO ISZERO ISZERO DUP2 MSTORE POP POP SWAP1 POP SWAP2 SWAP1 POP JUMP JUMPDEST PUSH1 0x60 PUSH1 0x0 PUSH1 0x3 SLOAD PUSH8 0xFFFFFFFFFFFFFFFF DUP2 GT ISZERO PUSH2 0x3ED JUMPI PUSH2 0x3EC PUSH2 0x1CF8 JUMP JUMPDEST JUMPDEST PUSH1 0x40 MLOAD SWAP1 DUP1 DUP3 MSTORE DUP1 PUSH1 0x20 MUL PUSH1 0x20 ADD DUP3 ADD PUSH1 0x40 MSTORE DUP1 ISZERO PUSH2 0x426 JUMPI DUP2 PUSH1 0x20 ADD JUMPDEST PUSH2 0x413 PUSH2 0xFA8 JUMP JUMPDEST DUP2 MSTORE PUSH1 0x20 ADD SWAP1 PUSH1 0x1 SWAP1 SUB SWAP1 DUP2 PUSH2 0x40B JUMPI SWAP1 POP JUMPDEST POP SWAP1 POP PUSH1 0x0 JUMPDEST PUSH1 0x3 SLOAD DUP2 LT ISZERO PUSH2 0x602 JUMPI PUSH1 0x2 PUSH1 0x0 DUP3 DUP2 MSTORE PUSH1 0x20 ADD SWAP1 DUP2 MSTORE PUSH1 0x20 ADD PUSH1 0x0 KECCAK256 PUSH1 0x4 ADD PUSH1 0x0 SWAP1 SLOAD SWAP1 PUSH2 0x100 EXP SWAP1 DIV PUSH1 0xFF AND ISZERO PUSH2 0x5EF JUMPI PUSH1 0x2 PUSH1 0x0 DUP3 DUP2 MSTORE PUSH1 0x20 ADD SWAP1 DUP2 MSTORE PUSH1 0x20 ADD PUSH1 0x0 KECCAK256 PUSH1 0x40 MLOAD DUP1 PUSH1 0xA0 ADD PUSH1 0x40 MSTORE SWAP1 DUP2 PUSH1 0x0 DUP3 ADD DUP1 SLOAD PUSH2 0x48D SWAP1 PUSH2 0x1BBF JUMP JUMPDEST DUP1 PUSH1 0x1F ADD PUSH1 0x20 DUP1 SWAP2 DIV MUL PUSH1 0x20 ADD PUSH1 0x40 MLOAD SWAP1 DUP2 ADD PUSH1 0x40 MSTORE DUP1 SWAP3 SWAP2 SWAP1 DUP2 DUP2 MSTORE PUSH1 0x20 ADD DUP3 DUP1 SLOAD PUSH2 0x4B9 SWAP1 PUSH2 0x1BBF JUMP JUMPDEST DUP1 ISZERO PUSH2 0x506 JUMPI DUP1 PUSH1 0x1F LT PUSH2 0x4DB JUMPI PUSH2 0x100 DUP1 DUP4 SLOAD DIV MUL DUP4 MSTORE SWAP2 PUSH1 0x20 ADD SWAP2 PUSH2 0x506 JUMP JUMPDEST DUP3 ADD SWAP2 SWAP1 PUSH1 0x0 MSTORE PUSH1 0x20 PUSH1 0x0 KECCAK256 SWAP1 JUMPDEST DUP2 SLOAD DUP2 MSTORE SWAP1 PUSH1 0x1 ADD SWAP1 PUSH1 0x20 ADD DUP1 DUP4 GT PUSH2 0x4E9 JUMPI DUP3 SWAP1 SUB PUSH1 0x1F AND DUP3 ADD SWAP2 JUMPDEST POP POP POP POP POP DUP2 MSTORE PUSH1 0x20 ADD PUSH1 0x1 DUP3 ADD DUP1 SLOAD PUSH2 0x51F SWAP1 PUSH2 0x1BBF JUMP JUMPDEST DUP1 PUSH1 0x1F ADD PUSH1 0x20 DUP1 SWAP2 DIV MUL PUSH1 0x20 ADD PUSH1 0x40 MLOAD SWAP1 DUP2 ADD PUSH1 0x40 MSTORE DUP1 SWAP3 SWAP2 SWAP1 DUP2 DUP2 MSTORE PUSH1 0x20 ADD DUP3 DUP1 SLOAD PUSH2 0x54B SWAP1 PUSH2 0x1BBF JUMP JUMPDEST DUP1 ISZERO PUSH2 0x598 JUMPI DUP1 PUSH1 0x1F LT PUSH2 0x56D JUMPI PUSH2 0x100 DUP1 DUP4 SLOAD DIV MUL DUP4 MSTORE SWAP2 PUSH1 0x20 ADD SWAP2 PUSH2 0x598 JUMP JUMPDEST DUP3 ADD SWAP2 SWAP1 PUSH1 0x0 MSTORE PUSH1 0x20 PUSH1 0x0 KECCAK256 SWAP1 JUMPDEST DUP2 SLOAD DUP2 MSTORE SWAP1 PUSH1 0x1 ADD SWAP1 PUSH1 0x20 ADD DUP1 DUP4 GT PUSH2 0x57B JUMPI DUP3 SWAP1 SUB PUSH1 0x1F AND DUP3 ADD SWAP2 JUMPDEST POP POP POP POP POP DUP2 MSTORE PUSH1 0x20 ADD PUSH1 0x2 DUP3 ADD SLOAD DUP2 MSTORE PUSH1 0x20 ADD PUSH1 0x3 DUP3 ADD SLOAD DUP2 MSTORE PUSH1 0x20 ADD PUSH1 0x4 DUP3 ADD PUSH1 0x0 SWAP1 SLOAD SWAP1 PUSH2 0x100 EXP SWAP1 DIV PUSH1 0xFF AND ISZERO ISZERO ISZERO ISZERO DUP2 MSTORE POP POP DUP3 DUP3 DUP2 MLOAD DUP2 LT PUSH2 0x5E3 JUMPI PUSH2 0x5E2 PUSH2 0x1CC9 JUMP JUMPDEST JUMPDEST PUSH1 0x20 MUL PUSH1 0x20 ADD ADD DUP2 SWAP1 MSTORE POP JUMPDEST DUP1 DUP1 PUSH2 0x5FA SWAP1 PUSH2 0x1C22 JUMP JUMPDEST SWAP2 POP POP PUSH2 0x42C JUMP JUMPDEST POP DUP1 SWAP2 POP POP SWAP1 JUMP JUMPDEST DUP1 PUSH1 0x2 PUSH1 0x0 PUSH1 0x3 SLOAD DUP2 MSTORE PUSH1 0x20 ADD SWAP1 DUP2 MSTORE PUSH1 0x20 ADD PUSH1 0x0 KECCAK256 PUSH1 0x0 DUP3 ADD MLOAD DUP2 PUSH1 0x0 ADD SWAP1 DUP1 MLOAD SWAP1 PUSH1 0x20 ADD SWAP1 PUSH2 0x63C SWAP3 SWAP2 SWAP1 PUSH2 0xFD9 JUMP JUMPDEST POP PUSH1 0x20 DUP3 ADD MLOAD DUP2 PUSH1 0x1 ADD SWAP1 DUP1 MLOAD SWAP1 PUSH1 0x20 ADD SWAP1 PUSH2 0x659 SWAP3 SWAP2 SWAP1 PUSH2 0xFD9 JUMP JUMPDEST POP PUSH1 0x40 DUP3 ADD MLOAD DUP2 PUSH1 0x2 ADD SSTORE PUSH1 0x60 DUP3 ADD MLOAD DUP2 PUSH1 0x3 ADD SSTORE PUSH1 0x80 DUP3 ADD MLOAD DUP2 PUSH1 0x4 ADD PUSH1 0x0 PUSH2 0x100 EXP DUP2 SLOAD DUP2 PUSH1 0xFF MUL NOT AND SWAP1 DUP4 ISZERO ISZERO MUL OR SWAP1 SSTORE POP SWAP1 POP POP PUSH1 0x1 PUSH1 0x3 PUSH1 0x0 DUP3 DUP3 SLOAD PUSH2 0x6A4 SWAP2 SWAP1 PUSH2 0x1B11 JUMP JUMPDEST SWAP3 POP POP DUP2 SWAP1 SSTORE POP POP JUMP JUMPDEST DUP1 PUSH1 0x0 DUP1 PUSH1 0x1 SLOAD DUP2 MSTORE PUSH1 0x20 ADD SWAP1 DUP2 MSTORE PUSH1 0x20 ADD PUSH1 0x0 KECCAK256 PUSH1 0x0 DUP3 ADD MLOAD DUP2 PUSH1 0x0 ADD SWAP1 DUP1 MLOAD SWAP1 PUSH1 0x20 ADD SWAP1 PUSH2 0x6DF SWAP3 SWAP2 SWAP1 PUSH2 0xFD9 JUMP JUMPDEST POP PUSH1 0x20 DUP3 ADD MLOAD DUP2 PUSH1 0x1 ADD SWAP1 DUP1 MLOAD SWAP1 PUSH1 0x20 ADD SWAP1 PUSH2 0x6FC SWAP3 SWAP2 SWAP1 PUSH2 0xFD9 JUMP JUMPDEST POP SWAP1 POP POP PUSH1 0x1 DUP1 PUSH1 0x0 DUP3 DUP3 SLOAD PUSH2 0x712 SWAP2 SWAP1 PUSH2 0x1B11 JUMP JUMPDEST SWAP3 POP POP DUP2 SWAP1 SSTORE POP POP JUMP JUMPDEST PUSH2 0x724 PUSH2 0x105F JUMP JUMPDEST PUSH1 0x0 DUP1 DUP4 DUP2 MSTORE PUSH1 0x20 ADD SWAP1 DUP2 MSTORE PUSH1 0x20 ADD PUSH1 0x0 KECCAK256 PUSH1 0x40 MLOAD DUP1 PUSH1 0x40 ADD PUSH1 0x40 MSTORE SWAP1 DUP2 PUSH1 0x0 DUP3 ADD DUP1 SLOAD PUSH2 0x751 SWAP1 PUSH2 0x1BBF JUMP JUMPDEST DUP1 PUSH1 0x1F ADD PUSH1 0x20 DUP1 SWAP2 DIV MUL PUSH1 0x20 ADD PUSH1 0x40 MLOAD SWAP1 DUP2 ADD PUSH1 0x40 MSTORE DUP1 SWAP3 SWAP2 SWAP1 DUP2 DUP2 MSTORE PUSH1 0x20 ADD DUP3 DUP1 SLOAD PUSH2 0x77D SWAP1 PUSH2 0x1BBF JUMP JUMPDEST DUP1 ISZERO PUSH2 0x7CA JUMPI DUP1 PUSH1 0x1F LT PUSH2 0x79F JUMPI PUSH2 0x100 DUP1 DUP4 SLOAD DIV MUL DUP4 MSTORE SWAP2 PUSH1 0x20 ADD SWAP2 PUSH2 0x7CA JUMP JUMPDEST DUP3 ADD SWAP2 SWAP1 PUSH1 0x0 MSTORE PUSH1 0x20 PUSH1 0x0 KECCAK256 SWAP1 JUMPDEST DUP2 SLOAD DUP2 MSTORE SWAP1 PUSH1 0x1 ADD SWAP1 PUSH1 0x20 ADD DUP1 DUP4 GT PUSH2 0x7AD JUMPI DUP3 SWAP1 SUB PUSH1 0x1F AND DUP3 ADD SWAP2 JUMPDEST POP POP POP POP POP DUP2 MSTORE PUSH1 0x20 ADD PUSH1 0x1 DUP3 ADD DUP1 SLOAD PUSH2 0x7E3 SWAP1 PUSH2 0x1BBF JUMP JUMPDEST DUP1 PUSH1 0x1F ADD PUSH1 0x20 DUP1 SWAP2 DIV MUL PUSH1 0x20 ADD PUSH1 0x40 MLOAD SWAP1 DUP2 ADD PUSH1 0x40 MSTORE DUP1 SWAP3 SWAP2 SWAP1 DUP2 DUP2 MSTORE PUSH1 0x20 ADD DUP3 DUP1 SLOAD PUSH2 0x80F SWAP1 PUSH2 0x1BBF JUMP JUMPDEST DUP1 ISZERO PUSH2 0x85C JUMPI DUP1 PUSH1 0x1F LT PUSH2 0x831 JUMPI PUSH2 0x100 DUP1 DUP4 SLOAD DIV MUL DUP4 MSTORE SWAP2 PUSH1 0x20 ADD SWAP2 PUSH2 0x85C JUMP JUMPDEST DUP3 ADD SWAP2 SWAP1 PUSH1 0x0 MSTORE PUSH1 0x20 PUSH1 0x0 KECCAK256 SWAP1 JUMPDEST DUP2 SLOAD DUP2 MSTORE SWAP1 PUSH1 0x1 ADD SWAP1 PUSH1 0x20 ADD DUP1 DUP4 GT PUSH2 0x83F JUMPI DUP3 SWAP1 SUB PUSH1 0x1F AND DUP3 ADD SWAP2 JUMPDEST POP POP POP POP POP DUP2 MSTORE POP POP SWAP1 POP SWAP2 SWAP1 POP JUMP JUMPDEST PUSH1 0x60 PUSH1 0x0 PUSH1 0x1 SLOAD PUSH8 0xFFFFFFFFFFFFFFFF DUP2 GT ISZERO PUSH2 0x88C JUMPI PUSH2 0x88B PUSH2 0x1CF8 JUMP JUMPDEST JUMPDEST PUSH1 0x40 MLOAD SWAP1 DUP1 DUP3 MSTORE DUP1 PUSH1 0x20 MUL PUSH1 0x20 ADD DUP3 ADD PUSH1 0x40 MSTORE DUP1 ISZERO PUSH2 0x8C5 JUMPI DUP2 PUSH1 0x20 ADD JUMPDEST PUSH2 0x8B2 PUSH2 0x105F JUMP JUMPDEST DUP2 MSTORE PUSH1 0x20 ADD SWAP1 PUSH1 0x1 SWAP1 SUB SWAP1 DUP2 PUSH2 0x8AA JUMPI SWAP1 POP JUMPDEST POP SWAP1 POP PUSH1 0x0 JUMPDEST PUSH1 0x1 SLOAD DUP2 LT ISZERO PUSH2 0xA47 JUMPI PUSH1 0x0 DUP1 DUP3 DUP2 MSTORE PUSH1 0x20 ADD SWAP1 DUP2 MSTORE PUSH1 0x20 ADD PUSH1 0x0 KECCAK256 PUSH1 0x40 MLOAD DUP1 PUSH1 0x40 ADD PUSH1 0x40 MSTORE SWAP1 DUP2 PUSH1 0x0 DUP3 ADD DUP1 SLOAD PUSH2 0x902 SWAP1 PUSH2 0x1BBF JUMP JUMPDEST DUP1 PUSH1 0x1F ADD PUSH1 0x20 DUP1 SWAP2 DIV MUL PUSH1 0x20 ADD PUSH1 0x40 MLOAD SWAP1 DUP2 ADD PUSH1 0x40 MSTORE DUP1 SWAP3 SWAP2 SWAP1 DUP2 DUP2 MSTORE PUSH1 0x20 ADD DUP3 DUP1 SLOAD PUSH2 0x92E SWAP1 PUSH2 0x1BBF JUMP JUMPDEST DUP1 ISZERO PUSH2 0x97B JUMPI DUP1 PUSH1 0x1F LT PUSH2 0x950 JUMPI PUSH2 0x100 DUP1 DUP4 SLOAD DIV MUL DUP4 MSTORE SWAP2 PUSH1 0x20 ADD SWAP2 PUSH2 0x97B JUMP JUMPDEST DUP3 ADD SWAP2 SWAP1 PUSH1 0x0 MSTORE PUSH1 0x20 PUSH1 0x0 KECCAK256 SWAP1 JUMPDEST DUP2 SLOAD DUP2 MSTORE SWAP1 PUSH1 0x1 ADD SWAP1 PUSH1 0x20 ADD DUP1 DUP4 GT PUSH2 0x95E JUMPI DUP3 SWAP1 SUB PUSH1 0x1F AND DUP3 ADD SWAP2 JUMPDEST POP POP POP POP POP DUP2 MSTORE PUSH1 0x20 ADD PUSH1 0x1 DUP3 ADD DUP1 SLOAD PUSH2 0x994 SWAP1 PUSH2 0x1BBF JUMP JUMPDEST DUP1 PUSH1 0x1F ADD PUSH1 0x20 DUP1 SWAP2 DIV MUL PUSH1 0x20 ADD PUSH1 0x40 MLOAD SWAP1 DUP2 ADD PUSH1 0x40 MSTORE DUP1 SWAP3 SWAP2 SWAP1 DUP2 DUP2 MSTORE PUSH1 0x20 ADD DUP3 DUP1 SLOAD PUSH2 0x9C0 SWAP1 PUSH2 0x1BBF JUMP JUMPDEST DUP1 ISZERO PUSH2 0xA0D JUMPI DUP1 PUSH1 0x1F LT PUSH2 0x9E2 JUMPI PUSH2 0x100 DUP1 DUP4 SLOAD DIV MUL DUP4 MSTORE SWAP2 PUSH1 0x20 ADD SWAP2 PUSH2 0xA0D JUMP JUMPDEST DUP3 ADD SWAP2 SWAP1 PUSH1 0x0 MSTORE PUSH1 0x20 PUSH1 0x0 KECCAK256 SWAP1 JUMPDEST DUP2 SLOAD DUP2 MSTORE SWAP1 PUSH1 0x1 ADD SWAP1 PUSH1 0x20 ADD DUP1 DUP4 GT PUSH2 0x9F0 JUMPI DUP3 SWAP1 SUB PUSH1 0x1F AND DUP3 ADD SWAP2 JUMPDEST POP POP POP POP POP DUP2 MSTORE POP POP DUP3 DUP3 DUP2 MLOAD DUP2 LT PUSH2 0xA29 JUMPI PUSH2 0xA28 PUSH2 0x1CC9 JUMP JUMPDEST JUMPDEST PUSH1 0x20 MUL PUSH1 0x20 ADD ADD DUP2 SWAP1 MSTORE POP DUP1 DUP1 PUSH2 0xA3F SWAP1 PUSH2 0x1C22 JUMP JUMPDEST SWAP2 POP POP PUSH2 0x8CB JUMP JUMPDEST POP DUP1 SWAP2 POP POP SWAP1 JUMP JUMPDEST PUSH1 0x60 PUSH1 0x0 PUSH1 0x5 SLOAD PUSH8 0xFFFFFFFFFFFFFFFF DUP2 GT ISZERO PUSH2 0xA6F JUMPI PUSH2 0xA6E PUSH2 0x1CF8 JUMP JUMPDEST JUMPDEST PUSH1 0x40 MLOAD SWAP1 DUP1 DUP3 MSTORE DUP1 PUSH1 0x20 MUL PUSH1 0x20 ADD DUP3 ADD PUSH1 0x40 MSTORE DUP1 ISZERO PUSH2 0xAA8 JUMPI DUP2 PUSH1 0x20 ADD JUMPDEST PUSH2 0xA95 PUSH2 0x1079 JUMP JUMPDEST DUP2 MSTORE PUSH1 0x20 ADD SWAP1 PUSH1 0x1 SWAP1 SUB SWAP1 DUP2 PUSH2 0xA8D JUMPI SWAP1 POP JUMPDEST POP SWAP1 POP PUSH1 0x0 JUMPDEST PUSH1 0x5 SLOAD DUP2 LT ISZERO PUSH2 0xB97 JUMPI PUSH1 0x0 PUSH1 0x4 PUSH1 0x0 PUSH1 0x5 SLOAD DUP2 MSTORE PUSH1 0x20 ADD SWAP1 DUP2 MSTORE PUSH1 0x20 ADD PUSH1 0x0 KECCAK256 PUSH1 0x40 MLOAD DUP1 PUSH1 0x80 ADD PUSH1 0x40 MSTORE SWAP1 DUP2 PUSH1 0x0 DUP3 ADD SLOAD DUP2 MSTORE PUSH1 0x20 ADD PUSH1 0x1 DUP3 ADD SLOAD DUP2 MSTORE PUSH1 0x20 ADD PUSH1 0x2 DUP3 ADD SLOAD DUP2 MSTORE PUSH1 0x20 ADD PUSH1 0x3 DUP3 ADD SLOAD DUP2 MSTORE POP POP SWAP1 POP PUSH1 0x0 PUSH2 0xB13 DUP3 PUSH1 0x0 ADD MLOAD PUSH2 0x71C JUMP JUMPDEST SWAP1 POP PUSH1 0x0 PUSH2 0xB24 DUP4 PUSH1 0x20 ADD MLOAD PUSH2 0x71C JUMP JUMPDEST SWAP1 POP PUSH1 0x0 PUSH2 0xB35 DUP5 PUSH1 0x40 ADD MLOAD PUSH2 0x24D JUMP JUMPDEST SWAP1 POP PUSH1 0x0 PUSH1 0x40 MLOAD DUP1 PUSH1 0x80 ADD PUSH1 0x40 MSTORE DUP1 DUP6 DUP2 MSTORE PUSH1 0x20 ADD DUP5 DUP2 MSTORE PUSH1 0x20 ADD DUP4 DUP2 MSTORE PUSH1 0x20 ADD DUP7 PUSH1 0x60 ADD MLOAD DUP2 MSTORE POP SWAP1 POP DUP1 DUP8 DUP8 DUP2 MLOAD DUP2 LT PUSH2 0xB74 JUMPI PUSH2 0xB73 PUSH2 0x1CC9 JUMP JUMPDEST JUMPDEST PUSH1 0x20 MUL PUSH1 0x20 ADD ADD DUP2 SWAP1 MSTORE POP POP POP POP POP POP DUP1 DUP1 PUSH2 0xB8F SWAP1 PUSH2 0x1C22 JUMP JUMPDEST SWAP2 POP POP PUSH2 0xAAE JUMP JUMPDEST POP DUP1 SWAP2 POP POP SWAP1 JUMP JUMPDEST PUSH1 0x60 PUSH1 0x0 PUSH1 0x3 SLOAD PUSH8 0xFFFFFFFFFFFFFFFF DUP2 GT ISZERO PUSH2 0xBBF JUMPI PUSH2 0xBBE PUSH2 0x1CF8 JUMP JUMPDEST JUMPDEST PUSH1 0x40 MLOAD SWAP1 DUP1 DUP3 MSTORE DUP1 PUSH1 0x20 MUL PUSH1 0x20 ADD DUP3 ADD PUSH1 0x40 MSTORE DUP1 ISZERO PUSH2 0xBF8 JUMPI DUP2 PUSH1 0x20 ADD JUMPDEST PUSH2 0xBE5 PUSH2 0xFA8 JUMP JUMPDEST DUP2 MSTORE PUSH1 0x20 ADD SWAP1 PUSH1 0x1 SWAP1 SUB SWAP1 DUP2 PUSH2 0xBDD JUMPI SWAP1 POP JUMPDEST POP SWAP1 POP PUSH1 0x0 JUMPDEST PUSH1 0x3 SLOAD DUP2 LT ISZERO PUSH2 0xDAA JUMPI PUSH1 0x2 PUSH1 0x0 DUP3 DUP2 MSTORE PUSH1 0x20 ADD SWAP1 DUP2 MSTORE PUSH1 0x20 ADD PUSH1 0x0 KECCAK256 PUSH1 0x40 MLOAD DUP1 PUSH1 0xA0 ADD PUSH1 0x40 MSTORE SWAP1 DUP2 PUSH1 0x0 DUP3 ADD DUP1 SLOAD PUSH2 0xC36 SWAP1 PUSH2 0x1BBF JUMP JUMPDEST DUP1 PUSH1 0x1F ADD PUSH1 0x20 DUP1 SWAP2 DIV MUL PUSH1 0x20 ADD PUSH1 0x40 MLOAD SWAP1 DUP2 ADD PUSH1 0x40 MSTORE DUP1 SWAP3 SWAP2 SWAP1 DUP2 DUP2 MSTORE PUSH1 0x20 ADD DUP3 DUP1 SLOAD PUSH2 0xC62 SWAP1 PUSH2 0x1BBF JUMP JUMPDEST DUP1 ISZERO PUSH2 0xCAF JUMPI DUP1 PUSH1 0x1F LT PUSH2 0xC84 JUMPI PUSH2 0x100 DUP1 DUP4 SLOAD DIV MUL DUP4 MSTORE SWAP2 PUSH1 0x20 ADD SWAP2 PUSH2 0xCAF JUMP JUMPDEST DUP3 ADD SWAP2 SWAP1 PUSH1 0x0 MSTORE PUSH1 0x20 PUSH1 0x0 KECCAK256 SWAP1 JUMPDEST DUP2 SLOAD DUP2 MSTORE SWAP1 PUSH1 0x1 ADD SWAP1 PUSH1 0x20 ADD DUP1 DUP4 GT PUSH2 0xC92 JUMPI DUP3 SWAP1 SUB PUSH1 0x1F AND DUP3 ADD SWAP2 JUMPDEST POP POP POP POP POP DUP2 MSTORE PUSH1 0x20 ADD PUSH1 0x1 DUP3 ADD DUP1 SLOAD PUSH2 0xCC8 SWAP1 PUSH2 0x1BBF JUMP JUMPDEST DUP1 PUSH1 0x1F ADD PUSH1 0x20 DUP1 SWAP2 DIV MUL PUSH1 0x20 ADD PUSH1 0x40 MLOAD SWAP1 DUP2 ADD PUSH1 0x40 MSTORE DUP1 SWAP3 SWAP2 SWAP1 DUP2 DUP2 MSTORE PUSH1 0x20 ADD DUP3 DUP1 SLOAD PUSH2 0xCF4 SWAP1 PUSH2 0x1BBF JUMP JUMPDEST DUP1 ISZERO PUSH2 0xD41 JUMPI DUP1 PUSH1 0x1F LT PUSH2 0xD16 JUMPI PUSH2 0x100 DUP1 DUP4 SLOAD DIV MUL DUP4 MSTORE SWAP2 PUSH1 0x20 ADD SWAP2 PUSH2 0xD41 JUMP JUMPDEST DUP3 ADD SWAP2 SWAP1 PUSH1 0x0 MSTORE PUSH1 0x20 PUSH1 0x0 KECCAK256 SWAP1 JUMPDEST DUP2 SLOAD DUP2 MSTORE SWAP1 PUSH1 0x1 ADD SWAP1 PUSH1 0x20 ADD DUP1 DUP4 GT PUSH2 0xD24 JUMPI DUP3 SWAP1 SUB PUSH1 0x1F AND DUP3 ADD SWAP2 JUMPDEST POP POP POP POP POP DUP2 MSTORE PUSH1 0x20 ADD PUSH1 0x2 DUP3 ADD SLOAD DUP2 MSTORE PUSH1 0x20 ADD PUSH1 0x3 DUP3 ADD SLOAD DUP2 MSTORE PUSH1 0x20 ADD PUSH1 0x4 DUP3 ADD PUSH1 0x0 SWAP1 SLOAD SWAP1 PUSH2 0x100 EXP SWAP1 DIV PUSH1 0xFF AND ISZERO ISZERO ISZERO ISZERO DUP2 MSTORE POP POP DUP3 DUP3 DUP2 MLOAD DUP2 LT PUSH2 0xD8C JUMPI PUSH2 0xD8B PUSH2 0x1CC9 JUMP JUMPDEST JUMPDEST PUSH1 0x20 MUL PUSH1 0x20 ADD ADD DUP2 SWAP1 MSTORE POP DUP1 DUP1 PUSH2 0xDA2 SWAP1 PUSH2 0x1C22 JUMP JUMPDEST SWAP2 POP POP PUSH2 0xBFE JUMP JUMPDEST POP DUP1 SWAP2 POP POP SWAP1 JUMP JUMPDEST DUP1 PUSH1 0x0 DUP1 DUP5 DUP2 MSTORE PUSH1 0x20 ADD SWAP1 DUP2 MSTORE PUSH1 0x20 ADD PUSH1 0x0 KECCAK256 PUSH1 0x0 DUP3 ADD MLOAD DUP2 PUSH1 0x0 ADD SWAP1 DUP1 MLOAD SWAP1 PUSH1 0x20 ADD SWAP1 PUSH2 0xDE1 SWAP3 SWAP2 SWAP1 PUSH2 0xFD9 JUMP JUMPDEST POP PUSH1 0x20 DUP3 ADD MLOAD DUP2 PUSH1 0x1 ADD SWAP1 DUP1 MLOAD SWAP1 PUSH1 0x20 ADD SWAP1 PUSH2 0xDFE SWAP3 SWAP2 SWAP1 PUSH2 0xFD9 JUMP JUMPDEST POP SWAP1 POP POP POP POP JUMP JUMPDEST DUP1 PUSH1 0x4 PUSH1 0x0 PUSH1 0x5 SLOAD DUP2 MSTORE PUSH1 0x20 ADD SWAP1 DUP2 MSTORE PUSH1 0x20 ADD PUSH1 0x0 KECCAK256 PUSH1 0x0 DUP3 ADD MLOAD DUP2 PUSH1 0x0 ADD SSTORE PUSH1 0x20 DUP3 ADD MLOAD DUP2 PUSH1 0x1 ADD SSTORE PUSH1 0x40 DUP3 ADD MLOAD DUP2 PUSH1 0x2 ADD SSTORE PUSH1 0x60 DUP3 ADD MLOAD DUP2 PUSH1 0x3 ADD SSTORE SWAP1 POP POP PUSH1 0x1 PUSH1 0x5 PUSH1 0x0 DUP3 DUP3 SLOAD PUSH2 0xE5A SWAP2 SWAP1 PUSH2 0x1B11 JUMP JUMPDEST SWAP3 POP POP DUP2 SWAP1 SSTORE POP POP JUMP JUMPDEST DUP1 PUSH1 0x2 PUSH1 0x0 DUP5 DUP2 MSTORE PUSH1 0x20 ADD SWAP1 DUP2 MSTORE PUSH1 0x20 ADD PUSH1 0x0 KECCAK256 PUSH1 0x0 DUP3 ADD MLOAD DUP2 PUSH1 0x0 ADD SWAP1 DUP1 MLOAD SWAP1 PUSH1 0x20 ADD SWAP1 PUSH2 0xE94 SWAP3 SWAP2 SWAP1 PUSH2 0xFD9 JUMP JUMPDEST POP PUSH1 0x20 DUP3 ADD MLOAD DUP2 PUSH1 0x1 ADD SWAP1 DUP1 MLOAD SWAP1 PUSH1 0x20 ADD SWAP1 PUSH2 0xEB1 SWAP3 SWAP2 SWAP1 PUSH2 0xFD9 JUMP JUMPDEST POP PUSH1 0x40 DUP3 ADD MLOAD DUP2 PUSH1 0x2 ADD SSTORE PUSH1 0x60 DUP3 ADD MLOAD DUP2 PUSH1 0x3 ADD SSTORE PUSH1 0x80 DUP3 ADD MLOAD DUP2 PUSH1 0x4 ADD PUSH1 0x0 PUSH2 0x100 EXP DUP2 SLOAD DUP2 PUSH1 0xFF MUL NOT AND SWAP1 DUP4 ISZERO ISZERO MUL OR SWAP1 SSTORE POP SWAP1 POP POP POP POP JUMP JUMPDEST PUSH2 0xEF5 PUSH2 0x1079 JUMP JUMPDEST PUSH1 0x0 PUSH1 0x4 PUSH1 0x0 DUP5 DUP2 MSTORE PUSH1 0x20 ADD SWAP1 DUP2 MSTORE PUSH1 0x20 ADD PUSH1 0x0 KECCAK256 PUSH1 0x40 MLOAD DUP1 PUSH1 0x80 ADD PUSH1 0x40 MSTORE SWAP1 DUP2 PUSH1 0x0 DUP3 ADD SLOAD DUP2 MSTORE PUSH1 0x20 ADD PUSH1 0x1 DUP3 ADD SLOAD DUP2 MSTORE PUSH1 0x20 ADD PUSH1 0x2 DUP3 ADD SLOAD DUP2 MSTORE PUSH1 0x20 ADD PUSH1 0x3 DUP3 ADD SLOAD DUP2 MSTORE POP POP SWAP1 POP PUSH1 0x0 PUSH2 0xF4E DUP3 PUSH1 0x0 ADD MLOAD PUSH2 0x71C JUMP JUMPDEST SWAP1 POP PUSH1 0x0 PUSH2 0xF5F DUP4 PUSH1 0x20 ADD MLOAD PUSH2 0x71C JUMP JUMPDEST SWAP1 POP PUSH1 0x0 PUSH2 0xF70 DUP5 PUSH1 0x40 ADD MLOAD PUSH2 0x24D JUMP JUMPDEST SWAP1 POP PUSH1 0x0 PUSH1 0x40 MLOAD DUP1 PUSH1 0x80 ADD PUSH1 0x40 MSTORE DUP1 DUP6 DUP2 MSTORE PUSH1 0x20 ADD DUP5 DUP2 MSTORE PUSH1 0x20 ADD DUP4 DUP2 MSTORE PUSH1 0x20 ADD DUP7 PUSH1 0x60 ADD MLOAD DUP2 MSTORE POP SWAP1 POP DUP1 SWAP6 POP POP POP POP POP POP SWAP2 SWAP1 POP JUMP JUMPDEST PUSH1 0x40 MLOAD DUP1 PUSH1 0xA0 ADD PUSH1 0x40 MSTORE DUP1 PUSH1 0x60 DUP2 MSTORE PUSH1 0x20 ADD PUSH1 0x60 DUP2 MSTORE PUSH1 0x20 ADD PUSH1 0x0 DUP2 MSTORE PUSH1 0x20 ADD PUSH1 0x0 DUP2 MSTORE PUSH1 0x20 ADD PUSH1 0x0 ISZERO ISZERO DUP2 MSTORE POP SWAP1 JUMP JUMPDEST DUP3 DUP1 SLOAD PUSH2 0xFE5 SWAP1 PUSH2 0x1BBF JUMP JUMPDEST SWAP1 PUSH1 0x0 MSTORE PUSH1 0x20 PUSH1 0x0 KECCAK256 SWAP1 PUSH1 0x1F ADD PUSH1 0x20 SWAP1 DIV DUP2 ADD SWAP3 DUP3 PUSH2 0x1007 JUMPI PUSH1 0x0 DUP6 SSTORE PUSH2 0x104E JUMP JUMPDEST DUP3 PUSH1 0x1F LT PUSH2 0x1020 JUMPI DUP1 MLOAD PUSH1 0xFF NOT AND DUP4 DUP1 ADD OR DUP6 SSTORE PUSH2 0x104E JUMP JUMPDEST DUP3 DUP1 ADD PUSH1 0x1 ADD DUP6 SSTORE DUP3 ISZERO PUSH2 0x104E JUMPI SWAP2 DUP3 ADD JUMPDEST DUP3 DUP2 GT ISZERO PUSH2 0x104D JUMPI DUP3 MLOAD DUP3 SSTORE SWAP2 PUSH1 0x20 ADD SWAP2 SWAP1 PUSH1 0x1 ADD SWAP1 PUSH2 0x1032 JUMP JUMPDEST JUMPDEST POP SWAP1 POP PUSH2 0x105B SWAP2 SWAP1 PUSH2 0x10B3 JUMP JUMPDEST POP SWAP1 JUMP JUMPDEST PUSH1 0x40 MLOAD DUP1 PUSH1 0x40 ADD PUSH1 0x40 MSTORE DUP1 PUSH1 0x60 DUP2 MSTORE PUSH1 0x20 ADD PUSH1 0x60 DUP2 MSTORE POP SWAP1 JUMP JUMPDEST PUSH1 0x40 MLOAD DUP1 PUSH1 0x80 ADD PUSH1 0x40 MSTORE DUP1 PUSH2 0x108C PUSH2 0x105F JUMP JUMPDEST DUP2 MSTORE PUSH1 0x20 ADD PUSH2 0x1099 PUSH2 0x105F JUMP JUMPDEST DUP2 MSTORE PUSH1 0x20 ADD PUSH2 0x10A6 PUSH2 0xFA8 JUMP JUMPDEST DUP2 MSTORE PUSH1 0x20 ADD PUSH1 0x0 DUP2 MSTORE POP SWAP1 JUMP JUMPDEST JUMPDEST DUP1 DUP3 GT ISZERO PUSH2 0x10CC JUMPI PUSH1 0x0 DUP2 PUSH1 0x0 SWAP1 SSTORE POP PUSH1 0x1 ADD PUSH2 0x10B4 JUMP JUMPDEST POP SWAP1 JUMP JUMPDEST PUSH1 0x0 PUSH2 0x10E3 PUSH2 0x10DE DUP5 PUSH2 0x1A19 JUMP JUMPDEST PUSH2 0x19F4 JUMP JUMPDEST SWAP1 POP DUP3 DUP2 MSTORE PUSH1 0x20 DUP2 ADD DUP5 DUP5 DUP5 ADD GT ISZERO PUSH2 0x10FF JUMPI PUSH2 0x10FE PUSH2 0x1D36 JUMP JUMPDEST JUMPDEST PUSH2 0x110A DUP5 DUP3 DUP6 PUSH2 0x1B7D JUMP JUMPDEST POP SWAP4 SWAP3 POP POP POP JUMP JUMPDEST PUSH1 0x0 DUP2 CALLDATALOAD SWAP1 POP PUSH2 0x1121 DUP2 PUSH2 0x1D56 JUMP JUMPDEST SWAP3 SWAP2 POP POP JUMP JUMPDEST PUSH1 0x0 DUP3 PUSH1 0x1F DUP4 ADD SLT PUSH2 0x113C JUMPI PUSH2 0x113B PUSH2 0x1D27 JUMP JUMPDEST JUMPDEST DUP2 CALLDATALOAD PUSH2 0x114C DUP5 DUP3 PUSH1 0x20 DUP7 ADD PUSH2 0x10D0 JUMP JUMPDEST SWAP2 POP POP SWAP3 SWAP2 POP POP JUMP JUMPDEST PUSH1 0x0 PUSH1 0x40 DUP3 DUP5 SUB SLT ISZERO PUSH2 0x116B JUMPI PUSH2 0x116A PUSH2 0x1D2C JUMP JUMPDEST JUMPDEST PUSH2 0x1175 PUSH1 0x40 PUSH2 0x19F4 JUMP JUMPDEST SWAP1 POP PUSH1 0x0 DUP3 ADD CALLDATALOAD PUSH8 0xFFFFFFFFFFFFFFFF DUP2 GT ISZERO PUSH2 0x1195 JUMPI PUSH2 0x1194 PUSH2 0x1D31 JUMP JUMPDEST JUMPDEST PUSH2 0x11A1 DUP5 DUP3 DUP6 ADD PUSH2 0x1127 JUMP JUMPDEST PUSH1 0x0 DUP4 ADD MSTORE POP PUSH1 0x20 DUP3 ADD CALLDATALOAD PUSH8 0xFFFFFFFFFFFFFFFF DUP2 GT ISZERO PUSH2 0x11C5 JUMPI PUSH2 0x11C4 PUSH2 0x1D31 JUMP JUMPDEST JUMPDEST PUSH2 0x11D1 DUP5 DUP3 DUP6 ADD PUSH2 0x1127 JUMP JUMPDEST PUSH1 0x20 DUP4 ADD MSTORE POP SWAP3 SWAP2 POP POP JUMP JUMPDEST PUSH1 0x0 PUSH1 0x80 DUP3 DUP5 SUB SLT ISZERO PUSH2 0x11F3 JUMPI PUSH2 0x11F2 PUSH2 0x1D2C JUMP JUMPDEST JUMPDEST PUSH2 0x11FD PUSH1 0x80 PUSH2 0x19F4 JUMP JUMPDEST SWAP1 POP PUSH1 0x0 PUSH2 0x120D DUP5 DUP3 DUP6 ADD PUSH2 0x1319 JUMP JUMPDEST PUSH1 0x0 DUP4 ADD MSTORE POP PUSH1 0x20 PUSH2 0x1221 DUP5 DUP3 DUP6 ADD PUSH2 0x1319 JUMP JUMPDEST PUSH1 0x20 DUP4 ADD MSTORE POP PUSH1 0x40 PUSH2 0x1235 DUP5 DUP3 DUP6 ADD PUSH2 0x1319 JUMP JUMPDEST PUSH1 0x40 DUP4 ADD MSTORE POP PUSH1 0x60 PUSH2 0x1249 DUP5 DUP3 DUP6 ADD PUSH2 0x1319 JUMP JUMPDEST PUSH1 0x60 DUP4 ADD MSTORE POP SWAP3 SWAP2 POP POP JUMP JUMPDEST PUSH1 0x0 PUSH1 0xA0 DUP3 DUP5 SUB SLT ISZERO PUSH2 0x126B JUMPI PUSH2 0x126A PUSH2 0x1D2C JUMP JUMPDEST JUMPDEST PUSH2 0x1275 PUSH1 0xA0 PUSH2 0x19F4 JUMP JUMPDEST SWAP1 POP PUSH1 0x0 DUP3 ADD CALLDATALOAD PUSH8 0xFFFFFFFFFFFFFFFF DUP2 GT ISZERO PUSH2 0x1295 JUMPI PUSH2 0x1294 PUSH2 0x1D31 JUMP JUMPDEST JUMPDEST PUSH2 0x12A1 DUP5 DUP3 DUP6 ADD PUSH2 0x1127 JUMP JUMPDEST PUSH1 0x0 DUP4 ADD MSTORE POP PUSH1 0x20 DUP3 ADD CALLDATALOAD PUSH8 0xFFFFFFFFFFFFFFFF DUP2 GT ISZERO PUSH2 0x12C5 JUMPI PUSH2 0x12C4 PUSH2 0x1D31 JUMP JUMPDEST JUMPDEST PUSH2 0x12D1 DUP5 DUP3 DUP6 ADD PUSH2 0x1127 JUMP JUMPDEST PUSH1 0x20 DUP4 ADD MSTORE POP PUSH1 0x40 PUSH2 0x12E5 DUP5 DUP3 DUP6 ADD PUSH2 0x1319 JUMP JUMPDEST PUSH1 0x40 DUP4 ADD MSTORE POP PUSH1 0x60 PUSH2 0x12F9 DUP5 DUP3 DUP6 ADD PUSH2 0x1319 JUMP JUMPDEST PUSH1 0x60 DUP4 ADD MSTORE POP PUSH1 0x80 PUSH2 0x130D DUP5 DUP3 DUP6 ADD PUSH2 0x1112 JUMP JUMPDEST PUSH1 0x80 DUP4 ADD MSTORE POP SWAP3 SWAP2 POP POP JUMP JUMPDEST PUSH1 0x0 DUP2 CALLDATALOAD SWAP1 POP PUSH2 0x1328 DUP2 PUSH2 0x1D6D JUMP JUMPDEST SWAP3 SWAP2 POP POP JUMP JUMPDEST PUSH1 0x0 PUSH1 0x20 DUP3 DUP5 SUB SLT ISZERO PUSH2 0x1344 JUMPI PUSH2 0x1343 PUSH2 0x1D40 JUMP JUMPDEST JUMPDEST PUSH1 0x0 DUP3 ADD CALLDATALOAD PUSH8 0xFFFFFFFFFFFFFFFF DUP2 GT ISZERO PUSH2 0x1362 JUMPI PUSH2 0x1361 PUSH2 0x1D3B JUMP JUMPDEST JUMPDEST PUSH2 0x136E DUP5 DUP3 DUP6 ADD PUSH2 0x1155 JUMP JUMPDEST SWAP2 POP POP SWAP3 SWAP2 POP POP JUMP JUMPDEST PUSH1 0x0 PUSH1 0x80 DUP3 DUP5 SUB SLT ISZERO PUSH2 0x138D JUMPI PUSH2 0x138C PUSH2 0x1D40 JUMP JUMPDEST JUMPDEST PUSH1 0x0 PUSH2 0x139B DUP5 DUP3 DUP6 ADD PUSH2 0x11DD JUMP JUMPDEST SWAP2 POP POP SWAP3 SWAP2 POP POP JUMP JUMPDEST PUSH1 0x0 PUSH1 0x20 DUP3 DUP5 SUB SLT ISZERO PUSH2 0x13BA JUMPI PUSH2 0x13B9 PUSH2 0x1D40 JUMP JUMPDEST JUMPDEST PUSH1 0x0 DUP3 ADD CALLDATALOAD PUSH8 0xFFFFFFFFFFFFFFFF DUP2 GT ISZERO PUSH2 0x13D8 JUMPI PUSH2 0x13D7 PUSH2 0x1D3B JUMP JUMPDEST JUMPDEST PUSH2 0x13E4 DUP5 DUP3 DUP6 ADD PUSH2 0x1255 JUMP JUMPDEST SWAP2 POP POP SWAP3 SWAP2 POP POP JUMP JUMPDEST PUSH1 0x0 PUSH1 0x20 DUP3 DUP5 SUB SLT ISZERO PUSH2 0x1403 JUMPI PUSH2 0x1402 PUSH2 0x1D40 JUMP JUMPDEST JUMPDEST PUSH1 0x0 PUSH2 0x1411 DUP5 DUP3 DUP6 ADD PUSH2 0x1319 JUMP JUMPDEST SWAP2 POP POP SWAP3 SWAP2 POP POP JUMP JUMPDEST PUSH1 0x0 DUP1 PUSH1 0x40 DUP4 DUP6 SUB SLT ISZERO PUSH2 0x1431 JUMPI PUSH2 0x1430 PUSH2 0x1D40 JUMP JUMPDEST JUMPDEST PUSH1 0x0 PUSH2 0x143F DUP6 DUP3 DUP7 ADD PUSH2 0x1319 JUMP JUMPDEST SWAP3 POP POP PUSH1 0x20 DUP4 ADD CALLDATALOAD PUSH8 0xFFFFFFFFFFFFFFFF DUP2 GT ISZERO PUSH2 0x1460 JUMPI PUSH2 0x145F PUSH2 0x1D3B JUMP JUMPDEST JUMPDEST PUSH2 0x146C DUP6 DUP3 DUP7 ADD PUSH2 0x1155 JUMP JUMPDEST SWAP2 POP POP SWAP3 POP SWAP3 SWAP1 POP JUMP JUMPDEST PUSH1 0x0 DUP1 PUSH1 0x40 DUP4 DUP6 SUB SLT ISZERO PUSH2 0x148D JUMPI PUSH2 0x148C PUSH2 0x1D40 JUMP JUMPDEST JUMPDEST PUSH1 0x0 PUSH2 0x149B DUP6 DUP3 DUP7 ADD PUSH2 0x1319 JUMP JUMPDEST SWAP3 POP POP PUSH1 0x20 DUP4 ADD CALLDATALOAD PUSH8 0xFFFFFFFFFFFFFFFF DUP2 GT ISZERO PUSH2 0x14BC JUMPI PUSH2 0x14BB PUSH2 0x1D3B JUMP JUMPDEST JUMPDEST PUSH2 0x14C8 DUP6 DUP3 DUP7 ADD PUSH2 0x1255 JUMP JUMPDEST SWAP2 POP POP SWAP3 POP SWAP3 SWAP1 POP JUMP JUMPDEST PUSH1 0x0 PUSH2 0x14DE DUP4 DUP4 PUSH2 0x16B5 JUMP JUMPDEST SWAP1 POP SWAP3 SWAP2 POP POP JUMP JUMPDEST PUSH1 0x0 PUSH2 0x14F2 DUP4 DUP4 PUSH2 0x173D JUMP JUMPDEST SWAP1 POP SWAP3 SWAP2 POP POP JUMP JUMPDEST PUSH1 0x0 PUSH2 0x1506 DUP4 DUP4 PUSH2 0x181F JUMP JUMPDEST SWAP1 POP SWAP3 SWAP2 POP POP JUMP JUMPDEST PUSH1 0x0 PUSH2 0x1519 DUP3 PUSH2 0x1A7A JUMP JUMPDEST PUSH2 0x1523 DUP2 DUP6 PUSH2 0x1ACD JUMP JUMPDEST SWAP4 POP DUP4 PUSH1 0x20 DUP3 MUL DUP6 ADD PUSH2 0x1535 DUP6 PUSH2 0x1A4A JUMP JUMPDEST DUP1 PUSH1 0x0 JUMPDEST DUP6 DUP2 LT ISZERO PUSH2 0x1571 JUMPI DUP5 DUP5 SUB DUP10 MSTORE DUP2 MLOAD PUSH2 0x1552 DUP6 DUP3 PUSH2 0x14D2 JUMP JUMPDEST SWAP5 POP PUSH2 0x155D DUP4 PUSH2 0x1AA6 JUMP JUMPDEST SWAP3 POP PUSH1 0x20 DUP11 ADD SWAP10 POP POP PUSH1 0x1 DUP2 ADD SWAP1 POP PUSH2 0x1539 JUMP JUMPDEST POP DUP3 SWAP8 POP DUP8 SWAP6 POP POP POP POP POP POP SWAP3 SWAP2 POP POP JUMP JUMPDEST PUSH1 0x0 PUSH2 0x158E DUP3 PUSH2 0x1A85 JUMP JUMPDEST PUSH2 0x1598 DUP2 DUP6 PUSH2 0x1ADE JUMP JUMPDEST SWAP4 POP DUP4 PUSH1 0x20 DUP3 MUL DUP6 ADD PUSH2 0x15AA DUP6 PUSH2 0x1A5A JUMP JUMPDEST DUP1 PUSH1 0x0 JUMPDEST DUP6 DUP2 LT ISZERO PUSH2 0x15E6 JUMPI DUP5 DUP5 SUB DUP10 MSTORE DUP2 MLOAD PUSH2 0x15C7 DUP6 DUP3 PUSH2 0x14E6 JUMP JUMPDEST SWAP5 POP PUSH2 0x15D2 DUP4 PUSH2 0x1AB3 JUMP JUMPDEST SWAP3 POP PUSH1 0x20 DUP11 ADD SWAP10 POP POP PUSH1 0x1 DUP2 ADD SWAP1 POP PUSH2 0x15AE JUMP JUMPDEST POP DUP3 SWAP8 POP DUP8 SWAP6 POP POP POP POP POP POP SWAP3 SWAP2 POP POP JUMP JUMPDEST PUSH1 0x0 PUSH2 0x1603 DUP3 PUSH2 0x1A90 JUMP JUMPDEST PUSH2 0x160D DUP2 DUP6 PUSH2 0x1AEF JUMP JUMPDEST SWAP4 POP DUP4 PUSH1 0x20 DUP3 MUL DUP6 ADD PUSH2 0x161F DUP6 PUSH2 0x1A6A JUMP JUMPDEST DUP1 PUSH1 0x0 JUMPDEST DUP6 DUP2 LT ISZERO PUSH2 0x165B JUMPI DUP5 DUP5 SUB DUP10 MSTORE DUP2 MLOAD PUSH2 0x163C DUP6 DUP3 PUSH2 0x14FA JUMP JUMPDEST SWAP5 POP PUSH2 0x1647 DUP4 PUSH2 0x1AC0 JUMP JUMPDEST SWAP3 POP PUSH1 0x20 DUP11 ADD SWAP10 POP POP PUSH1 0x1 DUP2 ADD SWAP1 POP PUSH2 0x1623 JUMP JUMPDEST POP DUP3 SWAP8 POP DUP8 SWAP6 POP POP POP POP POP POP SWAP3 SWAP2 POP POP JUMP JUMPDEST PUSH2 0x1676 DUP2 PUSH2 0x1B67 JUMP JUMPDEST DUP3 MSTORE POP POP JUMP JUMPDEST PUSH1 0x0 PUSH2 0x1687 DUP3 PUSH2 0x1A9B JUMP JUMPDEST PUSH2 0x1691 DUP2 DUP6 PUSH2 0x1B00 JUMP JUMPDEST SWAP4 POP PUSH2 0x16A1 DUP2 DUP6 PUSH1 0x20 DUP7 ADD PUSH2 0x1B8C JUMP JUMPDEST PUSH2 0x16AA DUP2 PUSH2 0x1D45 JUMP JUMPDEST DUP5 ADD SWAP2 POP POP SWAP3 SWAP2 POP POP JUMP JUMPDEST PUSH1 0x0 PUSH1 0x40 DUP4 ADD PUSH1 0x0 DUP4 ADD MLOAD DUP5 DUP3 SUB PUSH1 0x0 DUP7 ADD MSTORE PUSH2 0x16D2 DUP3 DUP3 PUSH2 0x167C JUMP JUMPDEST SWAP2 POP POP PUSH1 0x20 DUP4 ADD MLOAD DUP5 DUP3 SUB PUSH1 0x20 DUP7 ADD MSTORE PUSH2 0x16EC DUP3 DUP3 PUSH2 0x167C JUMP JUMPDEST SWAP2 POP POP DUP1 SWAP2 POP POP SWAP3 SWAP2 POP POP JUMP JUMPDEST PUSH1 0x0 PUSH1 0x40 DUP4 ADD PUSH1 0x0 DUP4 ADD MLOAD DUP5 DUP3 SUB PUSH1 0x0 DUP7 ADD MSTORE PUSH2 0x1716 DUP3 DUP3 PUSH2 0x167C JUMP JUMPDEST SWAP2 POP POP PUSH1 0x20 DUP4 ADD MLOAD DUP5 DUP3 SUB PUSH1 0x20 DUP7 ADD MSTORE PUSH2 0x1730 DUP3 DUP3 PUSH2 0x167C JUMP JUMPDEST SWAP2 POP POP DUP1 SWAP2 POP POP SWAP3 SWAP2 POP POP JUMP JUMPDEST PUSH1 0x0 PUSH1 0x80 DUP4 ADD PUSH1 0x0 DUP4 ADD MLOAD DUP5 DUP3 SUB PUSH1 0x0 DUP7 ADD MSTORE PUSH2 0x175A DUP3 DUP3 PUSH2 0x16B5 JUMP JUMPDEST SWAP2 POP POP PUSH1 0x20 DUP4 ADD MLOAD DUP5 DUP3 SUB PUSH1 0x20 DUP7 ADD MSTORE PUSH2 0x1774 DUP3 DUP3 PUSH2 0x16B5 JUMP JUMPDEST SWAP2 POP POP PUSH1 0x40 DUP4 ADD MLOAD DUP5 DUP3 SUB PUSH1 0x40 DUP7 ADD MSTORE PUSH2 0x178E DUP3 DUP3 PUSH2 0x181F JUMP JUMPDEST SWAP2 POP POP PUSH1 0x60 DUP4 ADD MLOAD PUSH2 0x17A3 PUSH1 0x60 DUP7 ADD DUP3 PUSH2 0x1919 JUMP JUMPDEST POP DUP1 SWAP2 POP POP SWAP3 SWAP2 POP POP JUMP JUMPDEST PUSH1 0x0 PUSH1 0x80 DUP4 ADD PUSH1 0x0 DUP4 ADD MLOAD DUP5 DUP3 SUB PUSH1 0x0 DUP7 ADD MSTORE PUSH2 0x17CB DUP3 DUP3 PUSH2 0x16B5 JUMP JUMPDEST SWAP2 POP POP PUSH1 0x20 DUP4 ADD MLOAD DUP5 DUP3 SUB PUSH1 0x20 DUP7 ADD MSTORE PUSH2 0x17E5 DUP3 DUP3 PUSH2 0x16B5 JUMP JUMPDEST SWAP2 POP POP PUSH1 0x40 DUP4 ADD MLOAD DUP5 DUP3 SUB PUSH1 0x40 DUP7 ADD MSTORE PUSH2 0x17FF DUP3 DUP3 PUSH2 0x181F JUMP JUMPDEST SWAP2 POP POP PUSH1 0x60 DUP4 ADD MLOAD PUSH2 0x1814 PUSH1 0x60 DUP7 ADD DUP3 PUSH2 0x1919 JUMP JUMPDEST POP DUP1 SWAP2 POP POP SWAP3 SWAP2 POP POP JUMP JUMPDEST PUSH1 0x0 PUSH1 0xA0 DUP4 ADD PUSH1 0x0 DUP4 ADD MLOAD DUP5 DUP3 SUB PUSH1 0x0 DUP7 ADD MSTORE PUSH2 0x183C DUP3 DUP3 PUSH2 0x167C JUMP JUMPDEST SWAP2 POP POP PUSH1 0x20 DUP4 ADD MLOAD DUP5 DUP3 SUB PUSH1 0x20 DUP7 ADD MSTORE PUSH2 0x1856 DUP3 DUP3 PUSH2 0x167C JUMP JUMPDEST SWAP2 POP POP PUSH1 0x40 DUP4 ADD MLOAD PUSH2 0x186B PUSH1 0x40 DUP7 ADD DUP3 PUSH2 0x1919 JUMP JUMPDEST POP PUSH1 0x60 DUP4 ADD MLOAD PUSH2 0x187E PUSH1 0x60 DUP7 ADD DUP3 PUSH2 0x1919 JUMP JUMPDEST POP PUSH1 0x80 DUP4 ADD MLOAD PUSH2 0x1891 PUSH1 0x80 DUP7 ADD DUP3 PUSH2 0x166D JUMP JUMPDEST POP DUP1 SWAP2 POP POP SWAP3 SWAP2 POP POP JUMP JUMPDEST PUSH1 0x0 PUSH1 0xA0 DUP4 ADD PUSH1 0x0 DUP4 ADD MLOAD DUP5 DUP3 SUB PUSH1 0x0 DUP7 ADD MSTORE PUSH2 0x18B9 DUP3 DUP3 PUSH2 0x167C JUMP JUMPDEST SWAP2 POP POP PUSH1 0x20 DUP4 ADD MLOAD DUP5 DUP3 SUB PUSH1 0x20 DUP7 ADD MSTORE PUSH2 0x18D3 DUP3 DUP3 PUSH2 0x167C JUMP JUMPDEST SWAP2 POP POP PUSH1 0x40 DUP4 ADD MLOAD PUSH2 0x18E8 PUSH1 0x40 DUP7 ADD DUP3 PUSH2 0x1919 JUMP JUMPDEST POP PUSH1 0x60 DUP4 ADD MLOAD PUSH2 0x18FB PUSH1 0x60 DUP7 ADD DUP3 PUSH2 0x1919 JUMP JUMPDEST POP PUSH1 0x80 DUP4 ADD MLOAD PUSH2 0x190E PUSH1 0x80 DUP7 ADD DUP3 PUSH2 0x166D JUMP JUMPDEST POP DUP1 SWAP2 POP POP SWAP3 SWAP2 POP POP JUMP JUMPDEST PUSH2 0x1922 DUP2 PUSH2 0x1B73 JUMP JUMPDEST DUP3 MSTORE POP POP JUMP JUMPDEST PUSH1 0x0 PUSH1 0x20 DUP3 ADD SWAP1 POP DUP2 DUP2 SUB PUSH1 0x0 DUP4 ADD MSTORE PUSH2 0x1942 DUP2 DUP5 PUSH2 0x150E JUMP JUMPDEST SWAP1 POP SWAP3 SWAP2 POP POP JUMP JUMPDEST PUSH1 0x0 PUSH1 0x20 DUP3 ADD SWAP1 POP DUP2 DUP2 SUB PUSH1 0x0 DUP4 ADD MSTORE PUSH2 0x1964 DUP2 DUP5 PUSH2 0x1583 JUMP JUMPDEST SWAP1 POP SWAP3 SWAP2 POP POP JUMP JUMPDEST PUSH1 0x0 PUSH1 0x20 DUP3 ADD SWAP1 POP DUP2 DUP2 SUB PUSH1 0x0 DUP4 ADD MSTORE PUSH2 0x1986 DUP2 DUP5 PUSH2 0x15F8 JUMP JUMPDEST SWAP1 POP SWAP3 SWAP2 POP POP JUMP JUMPDEST PUSH1 0x0 PUSH1 0x20 DUP3 ADD SWAP1 POP DUP2 DUP2 SUB PUSH1 0x0 DUP4 ADD MSTORE PUSH2 0x19A8 DUP2 DUP5 PUSH2 0x16F9 JUMP JUMPDEST SWAP1 POP SWAP3 SWAP2 POP POP JUMP JUMPDEST PUSH1 0x0 PUSH1 0x20 DUP3 ADD SWAP1 POP DUP2 DUP2 SUB PUSH1 0x0 DUP4 ADD MSTORE PUSH2 0x19CA DUP2 DUP5 PUSH2 0x17AE JUMP JUMPDEST SWAP1 POP SWAP3 SWAP2 POP POP JUMP JUMPDEST PUSH1 0x0 PUSH1 0x20 DUP3 ADD SWAP1 POP DUP2 DUP2 SUB PUSH1 0x0 DUP4 ADD MSTORE PUSH2 0x19EC DUP2 DUP5 PUSH2 0x189C JUMP JUMPDEST SWAP1 POP SWAP3 SWAP2 POP POP JUMP JUMPDEST PUSH1 0x0 PUSH2 0x19FE PUSH2 0x1A0F JUMP JUMPDEST SWAP1 POP PUSH2 0x1A0A DUP3 DUP3 PUSH2 0x1BF1 JUMP JUMPDEST SWAP2 SWAP1 POP JUMP JUMPDEST PUSH1 0x0 PUSH1 0x40 MLOAD SWAP1 POP SWAP1 JUMP JUMPDEST PUSH1 0x0 PUSH8 0xFFFFFFFFFFFFFFFF DUP3 GT ISZERO PUSH2 0x1A34 JUMPI PUSH2 0x1A33 PUSH2 0x1CF8 JUMP JUMPDEST JUMPDEST PUSH2 0x1A3D DUP3 PUSH2 0x1D45 JUMP JUMPDEST SWAP1 POP PUSH1 0x20 DUP2 ADD SWAP1 POP SWAP2 SWAP1 POP JUMP JUMPDEST PUSH1 0x0 DUP2 SWAP1 POP PUSH1 0x20 DUP3 ADD SWAP1 POP SWAP2 SWAP1 POP JUMP JUMPDEST PUSH1 0x0 DUP2 SWAP1 POP PUSH1 0x20 DUP3 ADD SWAP1 POP SWAP2 SWAP1 POP JUMP JUMPDEST PUSH1 0x0 DUP2 SWAP1 POP PUSH1 0x20 DUP3 ADD SWAP1 POP SWAP2 SWAP1 POP JUMP JUMPDEST PUSH1 0x0 DUP2 MLOAD SWAP1 POP SWAP2 SWAP1 POP JUMP JUMPDEST PUSH1 0x0 DUP2 MLOAD SWAP1 POP SWAP2 SWAP1 POP JUMP JUMPDEST PUSH1 0x0 DUP2 MLOAD SWAP1 POP SWAP2 SWAP1 POP JUMP JUMPDEST PUSH1 0x0 DUP2 MLOAD SWAP1 POP SWAP2 SWAP1 POP JUMP JUMPDEST PUSH1 0x0 PUSH1 0x20 DUP3 ADD SWAP1 POP SWAP2 SWAP1 POP JUMP JUMPDEST PUSH1 0x0 PUSH1 0x20 DUP3 ADD SWAP1 POP SWAP2 SWAP1 POP JUMP JUMPDEST PUSH1 0x0 PUSH1 0x20 DUP3 ADD SWAP1 POP SWAP2 SWAP1 POP JUMP JUMPDEST PUSH1 0x0 DUP3 DUP3 MSTORE PUSH1 0x20 DUP3 ADD SWAP1 POP SWAP3 SWAP2 POP POP JUMP JUMPDEST PUSH1 0x0 DUP3 DUP3 MSTORE PUSH1 0x20 DUP3 ADD SWAP1 POP SWAP3 SWAP2 POP POP JUMP JUMPDEST PUSH1 0x0 DUP3 DUP3 MSTORE PUSH1 0x20 DUP3 ADD SWAP1 POP SWAP3 SWAP2 POP POP JUMP JUMPDEST PUSH1 0x0 DUP3 DUP3 MSTORE PUSH1 0x20 DUP3 ADD SWAP1 POP SWAP3 SWAP2 POP POP JUMP JUMPDEST PUSH1 0x0 PUSH2 0x1B1C DUP3 PUSH2 0x1B73 JUMP JUMPDEST SWAP2 POP PUSH2 0x1B27 DUP4 PUSH2 0x1B73 JUMP JUMPDEST SWAP3 POP DUP3 PUSH32 0xFFFFFFFFFFFFFFFFFFFFFFFFFFFFFFFFFFFFFFFFFFFFFFFFFFFFFFFFFFFFFFFF SUB DUP3 GT ISZERO PUSH2 0x1B5C JUMPI PUSH2 0x1B5B PUSH2 0x1C6B JUMP JUMPDEST JUMPDEST DUP3 DUP3 ADD SWAP1 POP SWAP3 SWAP2 POP POP JUMP JUMPDEST PUSH1 0x0 DUP2 ISZERO ISZERO SWAP1 POP SWAP2 SWAP1 POP JUMP JUMPDEST PUSH1 0x0 DUP2 SWAP1 POP SWAP2 SWAP1 POP JUMP JUMPDEST DUP3 DUP2 DUP4 CALLDATACOPY PUSH1 0x0 DUP4 DUP4 ADD MSTORE POP POP POP JUMP JUMPDEST PUSH1 0x0 JUMPDEST DUP4 DUP2 LT ISZERO PUSH2 0x1BAA JUMPI DUP1 DUP3 ADD MLOAD DUP2 DUP5 ADD MSTORE PUSH1 0x20 DUP2 ADD SWAP1 POP PUSH2 0x1B8F JUMP JUMPDEST DUP4 DUP2 GT ISZERO PUSH2 0x1BB9 JUMPI PUSH1 0x0 DUP5 DUP5 ADD MSTORE JUMPDEST POP POP POP POP JUMP JUMPDEST PUSH1 0x0 PUSH1 0x2 DUP3 DIV SWAP1 POP PUSH1 0x1 DUP3 AND DUP1 PUSH2 0x1BD7 JUMPI PUSH1 0x7F DUP3 AND SWAP2 POP JUMPDEST PUSH1 0x20 DUP3 LT DUP2 EQ ISZERO PUSH2 0x1BEB JUMPI PUSH2 0x1BEA PUSH2 0x1C9A JUMP JUMPDEST JUMPDEST POP SWAP2 SWAP1 POP JUMP JUMPDEST PUSH2 0x1BFA DUP3 PUSH2 0x1D45 JUMP JUMPDEST DUP2 ADD DUP2 DUP2 LT PUSH8 0xFFFFFFFFFFFFFFFF DUP3 GT OR ISZERO PUSH2 0x1C19 JUMPI PUSH2 0x1C18 PUSH2 0x1CF8 JUMP JUMPDEST JUMPDEST DUP1 PUSH1 0x40 MSTORE POP POP POP JUMP JUMPDEST PUSH1 0x0 PUSH2 0x1C2D DUP3 PUSH2 0x1B73 JUMP JUMPDEST SWAP2 POP PUSH32 0xFFFFFFFFFFFFFFFFFFFFFFFFFFFFFFFFFFFFFFFFFFFFFFFFFFFFFFFFFFFFFFFF DUP3 EQ ISZERO PUSH2 0x1C60 JUMPI PUSH2 0x1C5F PUSH2 0x1C6B JUMP JUMPDEST JUMPDEST PUSH1 0x1 DUP3 ADD SWAP1 POP SWAP2 SWAP1 POP JUMP JUMPDEST PUSH32 0x4E487B7100000000000000000000000000000000000000000000000000000000 PUSH1 0x0 MSTORE PUSH1 0x11 PUSH1 0x4 MSTORE PUSH1 0x24 PUSH1 0x0 REVERT JUMPDEST PUSH32 0x4E487B7100000000000000000000000000000000000000000000000000000000 PUSH1 0x0 MSTORE PUSH1 0x22 PUSH1 0x4 MSTORE PUSH1 0x24 PUSH1 0x0 REVERT JUMPDEST PUSH32 0x4E487B7100000000000000000000000000000000000000000000000000000000 PUSH1 0x0 MSTORE PUSH1 0x32 PUSH1 0x4 MSTORE PUSH1 0x24 PUSH1 0x0 REVERT JUMPDEST PUSH32 0x4E487B7100000000000000000000000000000000000000000000000000000000 PUSH1 0x0 MSTORE PUSH1 0x41 PUSH1 0x4 MSTORE PUSH1 0x24 PUSH1 0x0 REVERT JUMPDEST PUSH1 0x0 DUP1 REVERT JUMPDEST PUSH1 0x0 DUP1 REVERT JUMPDEST PUSH1 0x0 DUP1 REVERT JUMPDEST PUSH1 0x0 DUP1 REVERT JUMPDEST PUSH1 0x0 DUP1 REVERT JUMPDEST PUSH1 0x0 DUP1 REVERT JUMPDEST PUSH1 0x0 PUSH1 0x1F NOT PUSH1 0x1F DUP4 ADD AND SWAP1 POP SWAP2 SWAP1 POP JUMP JUMPDEST PUSH2 0x1D5F DUP2 PUSH2 0x1B67 JUMP JUMPDEST DUP2 EQ PUSH2 0x1D6A JUMPI PUSH1 0x0 DUP1 REVERT JUMPDEST POP JUMP JUMPDEST PUSH2 0x1D76 DUP2 PUSH2 0x1B73 JUMP JUMPDEST DUP2 EQ PUSH2 0x1D81 JUMPI PUSH1 0x0 DUP1 REVERT JUMPDEST POP JUMP INVALID LOG2 PUSH5 0x6970667358 0x22 SLT KECCAK256 0xBE SWAP6 SWAP8 PUSH25 0xA7A406B9199F1B9544B2D06FA29A8B59689CE508821BF8DD66 PUSH6 0x4E2264736F6C PUSH4 0x43000806 STOP CALLER "
		},
		"gasEstimates": {
			"creation": {
				"codeDepositCost": "1522000",
				"executionCost": "16607",
				"totalCost": "1538607"
			},
			"external": {
				"createCity((string,string))": "infinite",
				"createTransfer((uint256,uint256,uint256,uint256))": "infinite",
				"createVehicle((string,string,uint256,uint256,bool))": "infinite",
				"getAllActiveVehicle()": "infinite",
				"getAllByIdTransferContent(uint256)": "infinite",
				"getAllCity()": "infinite",
				"getAllTransferContent()": "infinite",
				"getAllVehicle()": "infinite",
				"getByIdCity(uint256)": "infinite",
				"getByIdVehicle(uint256)": "infinite",
				"updateCity(uint256,(string,string))": "infinite",
				"updateVehicle(uint256,(string,string,uint256,uint256,bool))": "infinite"
			}
		},
		"methodIdentifiers": {
			"createCity((string,string))": "5752dbc2",
			"createTransfer((uint256,uint256,uint256,uint256))": "9f6d5759",
			"createVehicle((string,string,uint256,uint256,bool))": "437cd9f8",
			"getAllActiveVehicle()": "202433bf",
			"getAllByIdTransferContent(uint256)": "f90c91d5",
			"getAllCity()": "79359c99",
			"getAllTransferContent()": "86870c72",
			"getAllVehicle()": "93986189",
			"getByIdCity(uint256)": "6e03906a",
			"getByIdVehicle(uint256)": "184c3b7b",
			"updateCity(uint256,(string,string))": "961abd60",
			"updateVehicle(uint256,(string,string,uint256,uint256,bool))": "d030131d"
		}
	},
	"abi": [
		{
			"inputs": [
				{
					"components": [
						{
							"internalType": "string",
							"name": "name",
							"type": "string"
						},
						{
							"internalType": "string",
							"name": "note",
							"type": "string"
						}
					],
					"internalType": "struct BusTicket.City",
					"name": "_city",
					"type": "tuple"
				}
			],
			"name": "createCity",
			"outputs": [],
			"stateMutability": "nonpayable",
			"type": "function"
		},
		{
			"inputs": [
				{
					"components": [
						{
							"internalType": "uint256",
							"name": "fromCityId",
							"type": "uint256"
						},
						{
							"internalType": "uint256",
							"name": "toCityId",
							"type": "uint256"
						},
						{
							"internalType": "uint256",
							"name": "vehicleId",
							"type": "uint256"
						},
						{
							"internalType": "uint256",
							"name": "price",
							"type": "uint256"
						}
					],
					"internalType": "struct BusTicket.Transfer",
					"name": "_transfer",
					"type": "tuple"
				}
			],
			"name": "createTransfer",
			"outputs": [],
			"stateMutability": "nonpayable",
			"type": "function"
		},
		{
			"inputs": [
				{
					"components": [
						{
							"internalType": "string",
							"name": "number",
							"type": "string"
						},
						{
							"internalType": "string",
							"name": "brand",
							"type": "string"
						},
						{
							"internalType": "uint256",
							"name": "km",
							"type": "uint256"
						},
						{
							"internalType": "uint256",
							"name": "capacity",
							"type": "uint256"
						},
						{
							"internalType": "bool",
							"name": "isActive",
							"type": "bool"
						}
					],
					"internalType": "struct BusTicket.Vehicle",
					"name": "_vehicle",
					"type": "tuple"
				}
			],
			"name": "createVehicle",
			"outputs": [],
			"stateMutability": "nonpayable",
			"type": "function"
		},
		{
			"inputs": [],
			"name": "getAllActiveVehicle",
			"outputs": [
				{
					"components": [
						{
							"internalType": "string",
							"name": "number",
							"type": "string"
						},
						{
							"internalType": "string",
							"name": "brand",
							"type": "string"
						},
						{
							"internalType": "uint256",
							"name": "km",
							"type": "uint256"
						},
						{
							"internalType": "uint256",
							"name": "capacity",
							"type": "uint256"
						},
						{
							"internalType": "bool",
							"name": "isActive",
							"type": "bool"
						}
					],
					"internalType": "struct BusTicket.Vehicle[]",
					"name": "",
					"type": "tuple[]"
				}
			],
			"stateMutability": "view",
			"type": "function"
		},
		{
			"inputs": [
				{
					"internalType": "uint256",
					"name": "_index",
					"type": "uint256"
				}
			],
			"name": "getAllByIdTransferContent",
			"outputs": [
				{
					"components": [
						{
							"components": [
								{
									"internalType": "string",
									"name": "name",
									"type": "string"
								},
								{
									"internalType": "string",
									"name": "note",
									"type": "string"
								}
							],
							"internalType": "struct BusTicket.City",
							"name": "fromCity",
							"type": "tuple"
						},
						{
							"components": [
								{
									"internalType": "string",
									"name": "name",
									"type": "string"
								},
								{
									"internalType": "string",
									"name": "note",
									"type": "string"
								}
							],
							"internalType": "struct BusTicket.City",
							"name": "toCity",
							"type": "tuple"
						},
						{
							"components": [
								{
									"internalType": "string",
									"name": "number",
									"type": "string"
								},
								{
									"internalType": "string",
									"name": "brand",
									"type": "string"
								},
								{
									"internalType": "uint256",
									"name": "km",
									"type": "uint256"
								},
								{
									"internalType": "uint256",
									"name": "capacity",
									"type": "uint256"
								},
								{
									"internalType": "bool",
									"name": "isActive",
									"type": "bool"
								}
							],
							"internalType": "struct BusTicket.Vehicle",
							"name": "vehicle",
							"type": "tuple"
						},
						{
							"internalType": "uint256",
							"name": "price",
							"type": "uint256"
						}
					],
					"internalType": "struct BusTicket.TransferContent",
					"name": "",
					"type": "tuple"
				}
			],
			"stateMutability": "view",
			"type": "function"
		},
		{
			"inputs": [],
			"name": "getAllCity",
			"outputs": [
				{
					"components": [
						{
							"internalType": "string",
							"name": "name",
							"type": "string"
						},
						{
							"internalType": "string",
							"name": "note",
							"type": "string"
						}
					],
					"internalType": "struct BusTicket.City[]",
					"name": "",
					"type": "tuple[]"
				}
			],
			"stateMutability": "view",
			"type": "function"
		},
		{
			"inputs": [],
			"name": "getAllTransferContent",
			"outputs": [
				{
					"components": [
						{
							"components": [
								{
									"internalType": "string",
									"name": "name",
									"type": "string"
								},
								{
									"internalType": "string",
									"name": "note",
									"type": "string"
								}
							],
							"internalType": "struct BusTicket.City",
							"name": "fromCity",
							"type": "tuple"
						},
						{
							"components": [
								{
									"internalType": "string",
									"name": "name",
									"type": "string"
								},
								{
									"internalType": "string",
									"name": "note",
									"type": "string"
								}
							],
							"internalType": "struct BusTicket.City",
							"name": "toCity",
							"type": "tuple"
						},
						{
							"components": [
								{
									"internalType": "string",
									"name": "number",
									"type": "string"
								},
								{
									"internalType": "string",
									"name": "brand",
									"type": "string"
								},
								{
									"internalType": "uint256",
									"name": "km",
									"type": "uint256"
								},
								{
									"internalType": "uint256",
									"name": "capacity",
									"type": "uint256"
								},
								{
									"internalType": "bool",
									"name": "isActive",
									"type": "bool"
								}
							],
							"internalType": "struct BusTicket.Vehicle",
							"name": "vehicle",
							"type": "tuple"
						},
						{
							"internalType": "uint256",
							"name": "price",
							"type": "uint256"
						}
					],
					"internalType": "struct BusTicket.TransferContent[]",
					"name": "",
					"type": "tuple[]"
				}
			],
			"stateMutability": "view",
			"type": "function"
		},
		{
			"inputs": [],
			"name": "getAllVehicle",
			"outputs": [
				{
					"components": [
						{
							"internalType": "string",
							"name": "number",
							"type": "string"
						},
						{
							"internalType": "string",
							"name": "brand",
							"type": "string"
						},
						{
							"internalType": "uint256",
							"name": "km",
							"type": "uint256"
						},
						{
							"internalType": "uint256",
							"name": "capacity",
							"type": "uint256"
						},
						{
							"internalType": "bool",
							"name": "isActive",
							"type": "bool"
						}
					],
					"internalType": "struct BusTicket.Vehicle[]",
					"name": "",
					"type": "tuple[]"
				}
			],
			"stateMutability": "view",
			"type": "function"
		},
		{
			"inputs": [
				{
					"internalType": "uint256",
					"name": "_index",
					"type": "uint256"
				}
			],
			"name": "getByIdCity",
			"outputs": [
				{
					"components": [
						{
							"internalType": "string",
							"name": "name",
							"type": "string"
						},
						{
							"internalType": "string",
							"name": "note",
							"type": "string"
						}
					],
					"internalType": "struct BusTicket.City",
					"name": "",
					"type": "tuple"
				}
			],
			"stateMutability": "view",
			"type": "function"
		},
		{
			"inputs": [
				{
					"internalType": "uint256",
					"name": "_index",
					"type": "uint256"
				}
			],
			"name": "getByIdVehicle",
			"outputs": [
				{
					"components": [
						{
							"internalType": "string",
							"name": "number",
							"type": "string"
						},
						{
							"internalType": "string",
							"name": "brand",
							"type": "string"
						},
						{
							"internalType": "uint256",
							"name": "km",
							"type": "uint256"
						},
						{
							"internalType": "uint256",
							"name": "capacity",
							"type": "uint256"
						},
						{
							"internalType": "bool",
							"name": "isActive",
							"type": "bool"
						}
					],
					"internalType": "struct BusTicket.Vehicle",
					"name": "",
					"type": "tuple"
				}
			],
			"stateMutability": "view",
			"type": "function"
		},
		{
			"inputs": [
				{
					"internalType": "uint256",
					"name": "_index",
					"type": "uint256"
				},
				{
					"components": [
						{
							"internalType": "string",
							"name": "name",
							"type": "string"
						},
						{
							"internalType": "string",
							"name": "note",
							"type": "string"
						}
					],
					"internalType": "struct BusTicket.City",
					"name": "_city",
					"type": "tuple"
				}
			],
			"name": "updateCity",
			"outputs": [],
			"stateMutability": "nonpayable",
			"type": "function"
		},
		{
			"inputs": [
				{
					"internalType": "uint256",
					"name": "_index",
					"type": "uint256"
				},
				{
					"components": [
						{
							"internalType": "string",
							"name": "number",
							"type": "string"
						},
						{
							"internalType": "string",
							"name": "brand",
							"type": "string"
						},
						{
							"internalType": "uint256",
							"name": "km",
							"type": "uint256"
						},
						{
							"internalType": "uint256",
							"name": "capacity",
							"type": "uint256"
						},
						{
							"internalType": "bool",
							"name": "isActive",
							"type": "bool"
						}
					],
					"internalType": "struct BusTicket.Vehicle",
					"name": "_vehicle",
					"type": "tuple"
				}
			],
			"name": "updateVehicle",
			"outputs": [],
			"stateMutability": "nonpayable",
			"type": "function"
		}
	]
}