{
  "contractName": "BusTicket",
  "abi": [
    {
      "constant": true,
      "inputs": [],
      "name": "getConMsg",
      "outputs": [
        {
          "internalType": "string",
          "name": "",
          "type": "string"
        }
      ],
      "payable": false,
      "stateMutability": "view",
      "type": "function"
    },
    {
      "constant": false,
      "inputs": [
        {
          "internalType": "string",
          "name": "_conMsg",
          "type": "string"
        }
      ],
      "name": "setConMsg",
      "outputs": [],
      "payable": false,
      "stateMutability": "nonpayable",
      "type": "function"
    },
    {
      "constant": false,
      "inputs": [
        {
          "components": [
            {
              "internalType": "string",
              "name": "name",
              "type": "string"
            },
            {
              "internalType": "string",
              "name": "note",
              "type": "string"
            }
          ],
          "internalType": "struct BusTicket.City",
          "name": "_city",
          "type": "tuple"
        }
      ],
      "name": "createCity",
      "outputs": [],
      "payable": false,
      "stateMutability": "nonpayable",
      "type": "function"
    },
    {
      "constant": true,
      "inputs": [],
      "name": "getAllCity",
      "outputs": [
        {
          "components": [
            {
              "internalType": "string",
              "name": "name",
              "type": "string"
            },
            {
              "internalType": "string",
              "name": "note",
              "type": "string"
            }
          ],
          "internalType": "struct BusTicket.City[]",
          "name": "",
          "type": "tuple[]"
        }
      ],
      "payable": false,
      "stateMutability": "view",
      "type": "function"
    },
    {
      "constant": true,
      "inputs": [
        {
          "internalType": "uint256",
          "name": "_index",
          "type": "uint256"
        }
      ],
      "name": "getByIdCity",
      "outputs": [
        {
          "components": [
            {
              "internalType": "string",
              "name": "name",
              "type": "string"
            },
            {
              "internalType": "string",
              "name": "note",
              "type": "string"
            }
          ],
          "internalType": "struct BusTicket.City",
          "name": "",
          "type": "tuple"
        }
      ],
      "payable": false,
      "stateMutability": "view",
      "type": "function"
    },
    {
      "constant": false,
      "inputs": [
        {
          "internalType": "uint256",
          "name": "_index",
          "type": "uint256"
        },
        {
          "components": [
            {
              "internalType": "string",
              "name": "name",
              "type": "string"
            },
            {
              "internalType": "string",
              "name": "note",
              "type": "string"
            }
          ],
          "internalType": "struct BusTicket.City",
          "name": "_city",
          "type": "tuple"
        }
      ],
      "name": "updateCity",
      "outputs": [],
      "payable": false,
      "stateMutability": "nonpayable",
      "type": "function"
    },
    {
      "constant": false,
      "inputs": [
        {
          "components": [
            {
              "internalType": "string",
              "name": "number",
              "type": "string"
            },
            {
              "internalType": "string",
              "name": "brand",
              "type": "string"
            },
            {
              "internalType": "uint256",
              "name": "km",
              "type": "uint256"
            },
            {
              "internalType": "uint256",
              "name": "capacity",
              "type": "uint256"
            },
            {
              "internalType": "bool",
              "name": "isActive",
              "type": "bool"
            }
          ],
          "internalType": "struct BusTicket.Vehicle",
          "name": "_vehicle",
          "type": "tuple"
        }
      ],
      "name": "createVehicle",
      "outputs": [],
      "payable": false,
      "stateMutability": "nonpayable",
      "type": "function"
    },
    {
      "constant": true,
      "inputs": [],
      "name": "getAllVehicle",
      "outputs": [
        {
          "components": [
            {
              "internalType": "string",
              "name": "number",
              "type": "string"
            },
            {
              "internalType": "string",
              "name": "brand",
              "type": "string"
            },
            {
              "internalType": "uint256",
              "name": "km",
              "type": "uint256"
            },
            {
              "internalType": "uint256",
              "name": "capacity",
              "type": "uint256"
            },
            {
              "internalType": "bool",
              "name": "isActive",
              "type": "bool"
            }
          ],
          "internalType": "struct BusTicket.Vehicle[]",
          "name": "",
          "type": "tuple[]"
        }
      ],
      "payable": false,
      "stateMutability": "view",
      "type": "function"
    },
    {
      "constant": true,
      "inputs": [],
      "name": "getAllActiveVehicle",
      "outputs": [
        {
          "components": [
            {
              "internalType": "string",
              "name": "number",
              "type": "string"
            },
            {
              "internalType": "string",
              "name": "brand",
              "type": "string"
            },
            {
              "internalType": "uint256",
              "name": "km",
              "type": "uint256"
            },
            {
              "internalType": "uint256",
              "name": "capacity",
              "type": "uint256"
            },
            {
              "internalType": "bool",
              "name": "isActive",
              "type": "bool"
            }
          ],
          "internalType": "struct BusTicket.Vehicle[]",
          "name": "",
          "type": "tuple[]"
        }
      ],
      "payable": false,
      "stateMutability": "view",
      "type": "function"
    },
    {
      "constant": true,
      "inputs": [
        {
          "internalType": "uint256",
          "name": "_index",
          "type": "uint256"
        }
      ],
      "name": "getByIdVehicle",
      "outputs": [
        {
          "components": [
            {
              "internalType": "string",
              "name": "number",
              "type": "string"
            },
            {
              "internalType": "string",
              "name": "brand",
              "type": "string"
            },
            {
              "internalType": "uint256",
              "name": "km",
              "type": "uint256"
            },
            {
              "internalType": "uint256",
              "name": "capacity",
              "type": "uint256"
            },
            {
              "internalType": "bool",
              "name": "isActive",
              "type": "bool"
            }
          ],
          "internalType": "struct BusTicket.Vehicle",
          "name": "",
          "type": "tuple"
        }
      ],
      "payable": false,
      "stateMutability": "view",
      "type": "function"
    },
    {
      "constant": false,
      "inputs": [
        {
          "internalType": "uint256",
          "name": "_index",
          "type": "uint256"
        },
        {
          "components": [
            {
              "internalType": "string",
              "name": "number",
              "type": "string"
            },
            {
              "internalType": "string",
              "name": "brand",
              "type": "string"
            },
            {
              "internalType": "uint256",
              "name": "km",
              "type": "uint256"
            },
            {
              "internalType": "uint256",
              "name": "capacity",
              "type": "uint256"
            },
            {
              "internalType": "bool",
              "name": "isActive",
              "type": "bool"
            }
          ],
          "internalType": "struct BusTicket.Vehicle",
          "name": "_vehicle",
          "type": "tuple"
        }
      ],
      "name": "updateVehicle",
      "outputs": [],
      "payable": false,
      "stateMutability": "nonpayable",
      "type": "function"
    },
    {
      "constant": false,
      "inputs": [
        {
          "components": [
            {
              "internalType": "uint256",
              "name": "fromCityId",
              "type": "uint256"
            },
            {
              "internalType": "uint256",
              "name": "toCityId",
              "type": "uint256"
            },
            {
              "internalType": "uint256",
              "name": "vehicleId",
              "type": "uint256"
            },
            {
              "internalType": "uint256",
              "name": "price",
              "type": "uint256"
            }
          ],
          "internalType": "struct BusTicket.Transfer",
          "name": "_transfer",
          "type": "tuple"
        }
      ],
      "name": "createTransfer",
      "outputs": [],
      "payable": false,
      "stateMutability": "nonpayable",
      "type": "function"
    },
    {
      "constant": true,
      "inputs": [],
      "name": "getAllTransferContent",
      "outputs": [
        {
          "components": [
            {
              "components": [
                {
                  "internalType": "string",
                  "name": "name",
                  "type": "string"
                },
                {
                  "internalType": "string",
                  "name": "note",
                  "type": "string"
                }
              ],
              "internalType": "struct BusTicket.City",
              "name": "fromCity",
              "type": "tuple"
            },
            {
              "components": [
                {
                  "internalType": "string",
                  "name": "name",
                  "type": "string"
                },
                {
                  "internalType": "string",
                  "name": "note",
                  "type": "string"
                }
              ],
              "internalType": "struct BusTicket.City",
              "name": "toCity",
              "type": "tuple"
            },
            {
              "components": [
                {
                  "internalType": "string",
                  "name": "number",
                  "type": "string"
                },
                {
                  "internalType": "string",
                  "name": "brand",
                  "type": "string"
                },
                {
                  "internalType": "uint256",
                  "name": "km",
                  "type": "uint256"
                },
                {
                  "internalType": "uint256",
                  "name": "capacity",
                  "type": "uint256"
                },
                {
                  "internalType": "bool",
                  "name": "isActive",
                  "type": "bool"
                }
              ],
              "internalType": "struct BusTicket.Vehicle",
              "name": "vehicle",
              "type": "tuple"
            },
            {
              "internalType": "uint256",
              "name": "price",
              "type": "uint256"
            }
          ],
          "internalType": "struct BusTicket.TransferContent[]",
          "name": "",
          "type": "tuple[]"
        }
      ],
      "payable": false,
      "stateMutability": "view",
      "type": "function"
    },
    {
      "constant": true,
      "inputs": [
        {
          "internalType": "uint256",
          "name": "_index",
          "type": "uint256"
        }
      ],
      "name": "getAllByIdTransferContent",
      "outputs": [
        {
          "components": [
            {
              "components": [
                {
                  "internalType": "string",
                  "name": "name",
                  "type": "string"
                },
                {
                  "internalType": "string",
                  "name": "note",
                  "type": "string"
                }
              ],
              "internalType": "struct BusTicket.City",
              "name": "fromCity",
              "type": "tuple"
            },
            {
              "components": [
                {
                  "internalType": "string",
                  "name": "name",
                  "type": "string"
                },
                {
                  "internalType": "string",
                  "name": "note",
                  "type": "string"
                }
              ],
              "internalType": "struct BusTicket.City",
              "name": "toCity",
              "type": "tuple"
            },
            {
              "components": [
                {
                  "internalType": "string",
                  "name": "number",
                  "type": "string"
                },
                {
                  "internalType": "string",
                  "name": "brand",
                  "type": "string"
                },
                {
                  "internalType": "uint256",
                  "name": "km",
                  "type": "uint256"
                },
                {
                  "internalType": "uint256",
                  "name": "capacity",
                  "type": "uint256"
                },
                {
                  "internalType": "bool",
                  "name": "isActive",
                  "type": "bool"
                }
              ],
              "internalType": "struct BusTicket.Vehicle",
              "name": "vehicle",
              "type": "tuple"
            },
            {
              "internalType": "uint256",
              "name": "price",
              "type": "uint256"
            }
          ],
          "internalType": "struct BusTicket.TransferContent",
          "name": "",
          "type": "tuple"
        }
      ],
      "payable": false,
      "stateMutability": "view",
      "type": "function"
    }
  ],
  "bytecode": "0x60806040526040518060400160405280601881526020017f436f6e6e656374696f6e20537563636573732042616265210000000000000000815250600090805190602001906200005192919062000075565b506000600255600060045560006006553480156200006e57600080fd5b5062000124565b828054600181600116156101000203166002900490600052602060002090601f016020900481019282601f10620000b857805160ff1916838001178555620000e9565b82800160010185558215620000e9579182015b82811115620000e8578251825591602001919060010190620000cb565b5b509050620000f89190620000fc565b5090565b6200012191905b808211156200011d57600081600090555060010162000103565b5090565b90565b611f5780620001346000396000f3fe608060405234801561001057600080fd5b50600436106100ea5760003560e01c806386870c721161008c5780639f6d5759116100665780639f6d575914610239578063d030131d14610255578063d1bbcd6814610271578063f90c91d51461028d576100ea565b806386870c72146101e157806393986189146101ff578063961abd601461021d576100ea565b8063437cd9f8116100c8578063437cd9f81461015b5780635752dbc2146101775780636e03906a1461019357806379359c99146101c3576100ea565b806307aeeadf146100ef578063184c3b7b1461010d578063202433bf1461013d575b600080fd5b6100f76102bd565b6040516101049190611c8d565b60405180910390f35b610127600480360361012291908101906116c7565b61035f565b6040516101349190611cf3565b60405180910390f35b6101456104ff565b6040516101529190611c6b565b60405180910390f35b61017560048036036101709190810190611686565b610738565b005b610191600480360361018c919081019061161c565b6107d3565b005b6101ad60048036036101a891908101906116c7565b61083a565b6040516101ba9190611caf565b60405180910390f35b6101cb6109ab565b6040516101d89190611c27565b60405180910390f35b6101e9610b8b565b6040516101f69190611c49565b60405180910390f35b610207610cd5565b6040516102149190611c6b565b60405180910390f35b610237600480360361023291908101906116f0565b610ee4565b005b610253600480360361024e919081019061165d565b610f39565b005b61026f600480360361026a9190810190611744565b610f8e565b005b61028b600480360361028691908101906115db565b611017565b005b6102a760048036036102a291908101906116c7565b611031565b6040516102b49190611cd1565b60405180910390f35b606060008054600181600116156101000203166002900480601f0160208091040260200160405190810160405280929190818152602001828054600181600116156101000203166002900480156103555780601f1061032a57610100808354040283529160200191610355565b820191906000526020600020905b81548152906001019060200180831161033857829003601f168201915b5050505050905090565b61036761110a565b600360008381526020019081526020016000206040518060a0016040529081600082018054600181600116156101000203166002900480601f01602080910402602001604051908101604052809291908181526020018280546001816001161561010002031660029004801561041e5780601f106103f35761010080835404028352916020019161041e565b820191906000526020600020905b81548152906001019060200180831161040157829003601f168201915b50505050508152602001600182018054600181600116156101000203166002900480601f0160208091040260200160405190810160405280929190818152602001828054600181600116156101000203166002900480156104c05780601f10610495576101008083540402835291602001916104c0565b820191906000526020600020905b8154815290600101906020018083116104a357829003601f168201915b5050505050815260200160028201548152602001600382015481526020016004820160009054906101000a900460ff1615151515815250509050919050565b60608060045460405190808252806020026020018201604052801561053e57816020015b61052b61113b565b8152602001906001900390816105235790505b50905060008090505b600454811015610730576003600082815260200190815260200160002060040160009054906101000a900460ff161561072357600360008281526020019081526020016000206040518060a0016040529081600082018054600181600116156101000203166002900480601f0160208091040260200160405190810160405280929190818152602001828054600181600116156101000203166002900480156106315780601f1061060657610100808354040283529160200191610631565b820191906000526020600020905b81548152906001019060200180831161061457829003601f168201915b50505050508152602001600182018054600181600116156101000203166002900480601f0160208091040260200160405190810160405280929190818152602001828054600181600116156101000203166002900480156106d35780601f106106a8576101008083540402835291602001916106d3565b820191906000526020600020905b8154815290600101906020018083116106b657829003601f168201915b5050505050815260200160028201548152602001600382015481526020016004820160009054906101000a900460ff16151515158152505082828151811061071757fe5b60200260200101819052505b8080600101915050610547565b508091505090565b80600360006004548152602001908152602001600020600082015181600001908051906020019061076a92919061116c565b50602082015181600101908051906020019061078792919061116c565b50604082015181600201556060820151816003015560808201518160040160006101000a81548160ff021916908315150217905550905050600160046000828254019250508190555050565b80600160006002548152602001908152602001600020600082015181600001908051906020019061080592919061116c565b50602082015181600101908051906020019061082292919061116c565b50905050600160026000828254019250508190555050565b6108426111ec565b60016000838152602001908152602001600020604051806040016040529081600082018054600181600116156101000203166002900480601f0160208091040260200160405190810160405280929190818152602001828054600181600116156101000203166002900480156108f95780601f106108ce576101008083540402835291602001916108f9565b820191906000526020600020905b8154815290600101906020018083116108dc57829003601f168201915b50505050508152602001600182018054600181600116156101000203166002900480601f01602080910402602001604051908101604052809291908181526020018280546001816001161561010002031660029004801561099b5780601f106109705761010080835404028352916020019161099b565b820191906000526020600020905b81548152906001019060200180831161097e57829003601f168201915b5050505050815250509050919050565b6060806002546040519080825280602002602001820160405280156109ea57816020015b6109d7611206565b8152602001906001900390816109cf5790505b50905060008090505b600254811015610b835760016000828152602001908152602001600020604051806040016040529081600082018054600181600116156101000203166002900480601f016020809104026020016040519081016040528092919081815260200182805460018160011615610100020316600290048015610ab45780601f10610a8957610100808354040283529160200191610ab4565b820191906000526020600020905b815481529060010190602001808311610a9757829003601f168201915b50505050508152602001600182018054600181600116156101000203166002900480601f016020809104026020016040519081016040528092919081815260200182805460018160011615610100020316600290048015610b565780601f10610b2b57610100808354040283529160200191610b56565b820191906000526020600020905b815481529060010190602001808311610b3957829003601f168201915b505050505081525050828281518110610b6b57fe5b602002602001018190525080806001019150506109f3565b508091505090565b606080600654604051908082528060200260200182016040528015610bca57816020015b610bb7611220565b815260200190600190039081610baf5790505b50905060008090505b600654811015610ccd57610be561125a565b6005600060065481526020019081526020016000206040518060800160405290816000820154815260200160018201548152602001600282015481526020016003820154815250509050610c376111ec565b610c44826000015161083a565b9050610c4e6111ec565b610c5b836020015161083a565b9050610c6561110a565b610c72846040015161035f565b9050610c7c611282565b60405180608001604052808581526020018481526020018381526020018660600151815250905080878781518110610cb057fe5b602002602001018190525050505050508080600101915050610bd3565b508091505090565b606080600454604051908082528060200260200182016040528015610d1457816020015b610d0161113b565b815260200190600190039081610cf95790505b50905060008090505b600454811015610edc57600360008281526020019081526020016000206040518060a0016040529081600082018054600181600116156101000203166002900480601f016020809104026020016040519081016040528092919081815260200182805460018160011615610100020316600290048015610dde5780601f10610db357610100808354040283529160200191610dde565b820191906000526020600020905b815481529060010190602001808311610dc157829003601f168201915b50505050508152602001600182018054600181600116156101000203166002900480601f016020809104026020016040519081016040528092919081815260200182805460018160011615610100020316600290048015610e805780601f10610e5557610100808354040283529160200191610e80565b820191906000526020600020905b815481529060010190602001808311610e6357829003601f168201915b5050505050815260200160028201548152602001600382015481526020016004820160009054906101000a900460ff161515151581525050828281518110610ec457fe5b60200260200101819052508080600101915050610d1d565b508091505090565b80600160008481526020019081526020016000206000820151816000019080519060200190610f1492919061116c565b506020820151816001019080519060200190610f3192919061116c565b509050505050565b8060056000600654815260200190815260200160002060008201518160000155602082015181600101556040820151816002015560608201518160030155905050600160066000828254019250508190555050565b80600360008481526020019081526020016000206000820151816000019080519060200190610fbe92919061116c565b506020820151816001019080519060200190610fdb92919061116c565b50604082015181600201556060820151816003015560808201518160040160006101000a81548160ff0219169083151502179055509050505050565b806000908051906020019061102d9291906112bc565b5050565b611039611282565b61104161125a565b6005600084815260200190815260200160002060405180608001604052908160008201548152602001600182015481526020016002820154815260200160038201548152505090506110916111ec565b61109e826000015161083a565b90506110a86111ec565b6110b5836020015161083a565b90506110bf61110a565b6110cc846040015161035f565b90506110d6611282565b6040518060800160405280858152602001848152602001838152602001866060015181525090508095505050505050919050565b6040518060a00160405280606081526020016060815260200160008152602001600081526020016000151581525090565b6040518060a00160405280606081526020016060815260200160008152602001600081526020016000151581525090565b828054600181600116156101000203166002900490600052602060002090601f016020900481019282601f106111ad57805160ff19168380011785556111db565b828001600101855582156111db579182015b828111156111da5782518255916020019190600101906111bf565b5b5090506111e8919061133c565b5090565b604051806040016040528060608152602001606081525090565b604051806040016040528060608152602001606081525090565b6040518060800160405280611233611206565b8152602001611240611206565b815260200161124d61113b565b8152602001600081525090565b6040518060800160405280600081526020016000815260200160008152602001600081525090565b6040518060800160405280611295611206565b81526020016112a2611206565b81526020016112af61113b565b8152602001600081525090565b828054600181600116156101000203166002900490600052602060002090601f016020900481019282601f106112fd57805160ff191683800117855561132b565b8280016001018555821561132b579182015b8281111561132a57825182559160200191906001019061130f565b5b509050611338919061133c565b5090565b61135e91905b8082111561135a576000816000905550600101611342565b5090565b90565b60008135905061137081611ee6565b92915050565b600082601f83011261138757600080fd5b813561139a61139582611d42565b611d15565b915080825260208301602083018583830111156113b657600080fd5b6113c1838284611e93565b50505092915050565b600082601f8301126113db57600080fd5b81356113ee6113e982611d6e565b611d15565b9150808252602083016020830185838301111561140a57600080fd5b611415838284611e93565b50505092915050565b60006040828403121561143057600080fd5b61143a6040611d15565b9050600082013567ffffffffffffffff81111561145657600080fd5b61146284828501611376565b600083015250602082013567ffffffffffffffff81111561148257600080fd5b61148e84828501611376565b60208301525092915050565b6000608082840312156114ac57600080fd5b6114b66080611d15565b905060006114c6848285016115c6565b60008301525060206114da848285016115c6565b60208301525060406114ee848285016115c6565b6040830152506060611502848285016115c6565b60608301525092915050565b600060a0828403121561152057600080fd5b61152a60a0611d15565b9050600082013567ffffffffffffffff81111561154657600080fd5b61155284828501611376565b600083015250602082013567ffffffffffffffff81111561157257600080fd5b61157e84828501611376565b6020830152506040611592848285016115c6565b60408301525060606115a6848285016115c6565b60608301525060806115ba84828501611361565b60808301525092915050565b6000813590506115d581611efd565b92915050565b6000602082840312156115ed57600080fd5b600082013567ffffffffffffffff81111561160757600080fd5b611613848285016113ca565b91505092915050565b60006020828403121561162e57600080fd5b600082013567ffffffffffffffff81111561164857600080fd5b6116548482850161141e565b91505092915050565b60006080828403121561166f57600080fd5b600061167d8482850161149a565b91505092915050565b60006020828403121561169857600080fd5b600082013567ffffffffffffffff8111156116b257600080fd5b6116be8482850161150e565b91505092915050565b6000602082840312156116d957600080fd5b60006116e7848285016115c6565b91505092915050565b6000806040838503121561170357600080fd5b6000611711858286016115c6565b925050602083013567ffffffffffffffff81111561172e57600080fd5b61173a8582860161141e565b9150509250929050565b6000806040838503121561175757600080fd5b6000611765858286016115c6565b925050602083013567ffffffffffffffff81111561178257600080fd5b61178e8582860161150e565b9150509250929050565b60006117a483836119f8565b905092915050565b60006117b88383611aad565b905092915050565b60006117cc8383611b9b565b905092915050565b60006117df82611dca565b6117e98185611e28565b9350836020820285016117fb85611d9a565b8060005b8581101561183757848403895281516118188582611798565b945061182383611e01565b925060208a019950506001810190506117ff565b50829750879550505050505092915050565b600061185482611dd5565b61185e8185611e39565b93508360208202850161187085611daa565b8060005b858110156118ac578484038952815161188d85826117ac565b945061189883611e0e565b925060208a01995050600181019050611874565b50829750879550505050505092915050565b60006118c982611de0565b6118d38185611e4a565b9350836020820285016118e585611dba565b8060005b85811015611921578484038952815161190285826117c0565b945061190d83611e1b565b925060208a019950506001810190506118e9565b50829750879550505050505092915050565b61193c81611e7d565b82525050565b600061194d82611df6565b6119578185611e6c565b9350611967818560208601611ea2565b61197081611ed5565b840191505092915050565b600061198682611deb565b6119908185611e5b565b93506119a0818560208601611ea2565b6119a981611ed5565b840191505092915050565b600060408301600083015184820360008601526119d1828261197b565b915050602083015184820360208601526119eb828261197b565b9150508091505092915050565b60006040830160008301518482036000860152611a15828261197b565b91505060208301518482036020860152611a2f828261197b565b9150508091505092915050565b60006080830160008301518482036000860152611a5982826119f8565b91505060208301518482036020860152611a7382826119f8565b91505060408301518482036040860152611a8d8282611b9b565b9150506060830151611aa26060860182611c18565b508091505092915050565b60006080830160008301518482036000860152611aca82826119f8565b91505060208301518482036020860152611ae482826119f8565b91505060408301518482036040860152611afe8282611b9b565b9150506060830151611b136060860182611c18565b508091505092915050565b600060a0830160008301518482036000860152611b3b828261197b565b91505060208301518482036020860152611b55828261197b565b9150506040830151611b6a6040860182611c18565b506060830151611b7d6060860182611c18565b506080830151611b906080860182611933565b508091505092915050565b600060a0830160008301518482036000860152611bb8828261197b565b91505060208301518482036020860152611bd2828261197b565b9150506040830151611be76040860182611c18565b506060830151611bfa6060860182611c18565b506080830151611c0d6080860182611933565b508091505092915050565b611c2181611e89565b82525050565b60006020820190508181036000830152611c4181846117d4565b905092915050565b60006020820190508181036000830152611c638184611849565b905092915050565b60006020820190508181036000830152611c8581846118be565b905092915050565b60006020820190508181036000830152611ca78184611942565b905092915050565b60006020820190508181036000830152611cc981846119b4565b905092915050565b60006020820190508181036000830152611ceb8184611a3c565b905092915050565b60006020820190508181036000830152611d0d8184611b1e565b905092915050565b6000604051905081810181811067ffffffffffffffff82111715611d3857600080fd5b8060405250919050565b600067ffffffffffffffff821115611d5957600080fd5b601f19601f8301169050602081019050919050565b600067ffffffffffffffff821115611d8557600080fd5b601f19601f8301169050602081019050919050565b6000819050602082019050919050565b6000819050602082019050919050565b6000819050602082019050919050565b600081519050919050565b600081519050919050565b600081519050919050565b600081519050919050565b600081519050919050565b6000602082019050919050565b6000602082019050919050565b6000602082019050919050565b600082825260208201905092915050565b600082825260208201905092915050565b600082825260208201905092915050565b600082825260208201905092915050565b600082825260208201905092915050565b60008115159050919050565b6000819050919050565b82818337600083830152505050565b60005b83811015611ec0578082015181840152602081019050611ea5565b83811115611ecf576000848401525b50505050565b6000601f19601f8301169050919050565b611eef81611e7d565b8114611efa57600080fd5b50565b611f0681611e89565b8114611f1157600080fd5b5056fea365627a7a723158208c14e1160d73e5e61a338681fe190bdd52fc0e96a54257a3248a472db39e7d3d6c6578706572696d656e74616cf564736f6c63430005100040",
  "source": "// SPDX-License-Identifier: MIT\npragma solidity >=0.4.22 <0.9.0;\npragma experimental ABIEncoderV2;\n\ncontract BusTicket {\n    //CONNECTION TEST AREA\n\n    string conMsg = \"Connection Success Babe!\";\n\n    function getConMsg() public view returns (string memory) {\n        return conMsg;\n    }\n\n    function setConMsg(string memory _conMsg) public {\n        conMsg = _conMsg;\n    }\n\n    //CITY\n\n    // variables\n    struct City {\n        string name;\n        string note;\n    }\n\n    mapping(uint256 => City) cityMap;\n    uint256 cityMapIndex = 0;\n\n    //functions\n\n    function createCity(City memory _city) public {\n        cityMap[cityMapIndex] = _city;\n        cityMapIndex += 1;\n    }\n\n    function getAllCity() public view returns (City[] memory) {\n        City[] memory result = new City[](cityMapIndex);\n\n        for (uint256 index = 0; index < cityMapIndex; index++) {\n            result[index] = cityMap[index];\n        }\n        return result;\n    }\n\n    function getByIdCity(uint256 _index) public view returns (City memory) {\n        return cityMap[_index];\n    }\n\n    function updateCity(uint256 _index, City memory _city) public {\n        cityMap[_index] = _city;\n    }\n\n    //VEHICLE\n\n    //variables\n\n    struct Vehicle {\n        string number;\n        string brand;\n        uint256 km;\n        uint256 capacity;\n        bool isActive;\n    }\n\n    mapping(uint256 => Vehicle) vehicleMap;\n    uint256 vehicleMapIndex = 0;\n\n    //functions\n\n    function createVehicle(Vehicle memory _vehicle) public {\n        vehicleMap[vehicleMapIndex] = _vehicle;\n        vehicleMapIndex += 1;\n    }\n\n    function getAllVehicle() public view returns (Vehicle[] memory) {\n        Vehicle[] memory result = new Vehicle[](vehicleMapIndex);\n\n        for (uint256 index = 0; index < vehicleMapIndex; index++) {\n            result[index] = vehicleMap[index];\n        }\n        return result;\n    }\n\n    function getAllActiveVehicle() public view returns (Vehicle[] memory) {\n        Vehicle[] memory result = new Vehicle[](vehicleMapIndex);\n\n        for (uint256 index = 0; index < vehicleMapIndex; index++) {\n            if (vehicleMap[index].isActive) {\n                result[index] = vehicleMap[index];\n            }\n        }\n        return result;\n    }\n\n    function getByIdVehicle(uint256 _index)\n        public\n        view\n        returns (Vehicle memory)\n    {\n        return vehicleMap[_index];\n    }\n\n    function updateVehicle(uint256 _index, Vehicle memory _vehicle) public {\n        vehicleMap[_index] = _vehicle;\n    }\n\n    // TRANSFER\n\n    //variables\n\n    // future-1\n    // enum TransferStatus {\n    //     Start,\n    //     Stop,\n    //     Waiting\n    // }\n\n    struct TransferContent {\n        City fromCity;\n        City toCity;\n        Vehicle vehicle;\n        uint256 price;\n    }\n\n    struct Transfer {\n        uint256 fromCityId;\n        uint256 toCityId;\n        uint256 vehicleId;\n        uint256 price;\n        //TransferStatus transferStatus;\n        //enum -> status\n    }\n\n    mapping(uint256 => Transfer) transferMap;\n    uint256 transferMapIndex = 0;\n\n    //functions\n\n    function createTransfer(Transfer memory _transfer) public {\n        transferMap[transferMapIndex] = _transfer;\n        transferMapIndex += 1;\n    }\n\n    function getAllTransferContent()\n        public\n        view\n        returns (TransferContent[] memory)\n    {\n        TransferContent[] memory result = new TransferContent[](\n            transferMapIndex\n        );\n\n        for (uint256 index = 0; index < transferMapIndex; index++) {\n            Transfer memory transferDetail = transferMap[transferMapIndex];\n            City memory fromCity = getByIdCity(transferDetail.fromCityId);\n            City memory toCity = getByIdCity(transferDetail.toCityId);\n            Vehicle memory vehicle = getByIdVehicle(transferDetail.vehicleId);\n\n            TransferContent memory resultTransferContent = TransferContent(\n                fromCity,\n                toCity,\n                vehicle,\n                transferDetail.price\n            );\n\n            result[index] = resultTransferContent;\n        }\n\n        return result;\n    }\n\n    function getAllByIdTransferContent(uint256 _index)\n        public\n        view\n        returns (TransferContent memory)\n    {\n        Transfer memory transferDetail = transferMap[_index];\n        City memory fromCity = getByIdCity(transferDetail.fromCityId);\n        City memory toCity = getByIdCity(transferDetail.toCityId);\n        Vehicle memory vehicle = getByIdVehicle(transferDetail.vehicleId);\n\n        TransferContent memory result = TransferContent(\n            fromCity,\n            toCity,\n            vehicle,\n            transferDetail.price\n        );\n\n        return result;\n    }\n}\n",
  "sourcePath": "/Users/hamditug/Desktop/studies/React/ehterium-bus-ticket-app/contracts/BusTicket.sol",
  "compiler": {
    "name": "solc",
    "version": "0.5.16+commit.9c3226ce.Emscripten.clang"
  },
  "schemaVersion": "3.4.4",
  "updatedAt": "2022-02-10T10:01:03.236Z",
  "networkType": "ethereum",
  "devdoc": {
    "methods": {}
  },
  "userdoc": {
    "methods": {}
  }
}